:2000000000000000000002000080000000000000002700003E303000B30CA3A80404000087
:200020003F0600001C022200000000F914B12940004000303FF90006000000000000000066
:200040000066009900FF040000170BE8100E0770080720808000082A00000100000000009D
:200060000000000000000000000000000000000000000213040400044440000000000000DB
:2000800000000000000000000000000000000000000000000000000000000000000100005F
:2000A000F3000404A00153000000000000000C005000A30200010000000000000000000847
:2000C0003100080400000008C20008000F01F0080002000400000200000000443502060080
:2000E000040C000E11FFFFFF62A0F0410C00000018000400040404044444000000000000E1
:200100000000400200103010001010120000000000000000000000000000000019BCC00284
:20012000C3002C40C30C34B10000000300400000000900B0086000800000000000000000F8
:2001400000B0FE0C03A0841000140000800030001FC0603F0000A828000001000600000095
:200160000010000512FF07FF4020F0050800000000000000040404044404000040A8402056
:2001800000000000000000000000000000000000000000000000000000000000001000004F
:2001A0000001000A00020001000000000000000000000020003000000001000200000000DE
:2001C000003000000001000600000000000300300004000800080002000000046403000034
:2001E0000000C0BE38FFFFFF0000F0440C0000000100040000040404204400000000000097
:200200000000C00000004002000000000000000000000000000000000000000000000000DC
:2002200008CC0001010000000008000100000000000000100000000000CC080202AB000448
:2002400000000100046700000000080F021804E00800010F000800000000150000000000E8
:20026000000000000000000000000000000000000000000004040004100000000000000062
:200280000000000000000000000000000000000000000000000000000000000000C5003A5F
:2002A00000A3005C0000000000FE000100000000007F00000000000000960068000E00F0C5
:2002C000000000000000000000000001000000FF000000000000000000000004000000001A
:2002E0000000000000000000000000000000000000000000000400000000000000000000FA
:200300000000000000000000000000000000000000000000000000000000000000040400D5
:2003200000000002000008000000000800080000000000040002020000000000000001009A
:200340000000000000000001000100000802020101040408000000000000005165020000C5
:200360000000000000FFFFFF00A00001180000000F000000040404040111000040008000D6
:200380004040800040008000402080000000000000000000000000000000000000000000BD
:2003A00000300640000000000000000F000B000400170800000C0002000C00010008000166
:2003C00004000200000000000030010001100420080F0240000A00000000440125060000DE
:2003E0000004E2C33DFFFFFF00AF0701180000000F00040004040404122100004000800035
:2004000040408000400080004020800000000000000000000000000000000000000000003C
:20042000200E403000000000100000000033000C01000A00014602A902000101204040131B
:20044000002A00541080005601FF0600700004FF08000300020080000000010065000000CC
:2004600004000DB024FF7FFF42A070000C0000000000000004040400320300000009400929
:20048000300900000000000000000000000000000000000000000000000000000318000602
:2004A000051A782401060000FF3400083A0104002224050001000040032C00100802070024
:2004C0000101001E10240718C03F0700001F80007F6000000802000000001000000000000B
:2004E0000000000000000000000000000000000000000000040400003300000000000000C1
:20050000000000000000000000000000000000000000000000000000000000000040001487
:20052000084F0000000100000040000B00030000000102000042000900030020004800025A
:200540000090010B00000001001F0400041F01E00240080000A80000000000540000000091
:2005600000000000000000000000000000000000000000000404000433000000000000003C
:20058000000000000000000000000000000000000000000000000000000000000400210036
:2005A0002550000104400118F150080280000020710402080040100801400E1425000040DE
:2005C00000804000800F0000053F2000400080C0303F0F0008288000000000043200000084
:2005E0000000500218FFFFFF42A070000810000020000400040404043333000000484048C0
:20060000804880480000000000000000000000000000000000000000000000002FF08000AB
:20062000060760100001100E2007C02001036444080065F005066A8101010208600002F0BA
:200640004002208561F0020000000000000000001F0FE0F000008020000000400000000082
:200660000000000000000000000000000000000000000800040400043390000000000000A3
:2006800000000000000000000000000000000000000000000000000000000000FFE8000073
:2006A000A5374AC80001B500005704A80000010404010000000202E0020700004D40921766
:2006C0001A986060CC0013FFA90054080000FFFF000000002000000000000404000000009F
:2006E000000000000000000000000000000000000000080004040004009000000000000056
:200700000000000000000000000000000000000000000000000000000000000000000000D9
:2007200000000000000008000000000000000000010002000000000000000000000010009E
:20074000000000000000000001000600040008000300100000000000000000000000000073
:200760000000000000000000000000000000000000000800040000040390000000000000D6
:20078000000000000000000000000000000000000000000000000000000000000001042430
:2007A000000000100001080A000000100000003000000240000A00010000010B0000008BF2
:2007C00000010006000000100000000B088004070208017000000088000000100000000051
:2007E0000000000000000000000000000000000000000000040400003300000000000000BE
:20080000000000000000000000000000000000000000000000000000000000009E006000DA
:20082000CF003002000000010000000C9404600000000000730000003000C9000000000046
:2008400000000F0000000000FD000200000800040002FF0100000000000040040000000038
:200860000000000000000000000000000000000000000800040400042090000000000000B4
:20088000000000000000000000000000000000000000000000000000000000001000000048
:2008A00000C000340000000000F7000000A100520100020001000A07025401A0003100C25B
:2008C00000000000007700000100060810000800040F03F0000080000000010000000000F3
:2008E000000000000000000000000000000000000000080004040004119000000000000043
:200900000000000000000000000000000000000000000000000000000000000000000300D4
:20092000000000020000000C00000000000000000000000000080504000000000001000097
:200940000000000000000A0000000000080404080101020200000000000000055004000016
:200960000000000000FFFFFF00A00004180000000F00040004040404401000004000C0004B
:200980004040C000C000C000C000C000000000000000000000000000000000000000010016
:2009A000000000000200000000000000000000000000000000000000000000000000000035
:2009C0000000000000000000000000000000020000000100000000000000040010040000FC
:2009E00000D010253AFFFFFF00AF0F04180000002700000004000404000000004000C000AE
:200A00004040C000C000C000C000C000000000000000000000000000000000000002000193
:200A200000100000000000000001000A001000000001000200010006000000000000000081
:200A4000000000000000000000000000000300100008000400080002000000040000000069
:200A6000000000000000000000000000000000000000000000040000100000000000000062
:200A80000000000000000000000000000000000000000000000000000000000000C0003462
:200AA00000000F07730000009E3160C29400600000F70000005400A0CF00300000000000DE
:200AC0003000C908FD77020000A100520000FFF0000F000000000000000004004302000065
:200AE0000000000000FFFFFF00A00001180000000000000004040400200200004000800052
:200B00004040800040008000402080000000000000000000000000000000000000A3005C36
:200B200000FE000100000000CC0E02F0080001016700000000960068CC00010000000000AE
:200B400000000F00AB7F040000C5103A18FF0000E0000F00200000000000000143020000DD
:200B60000034C20E1FFFFFFF00AF070118000000000008000404040402920000400080001A
:200B800040408000400080004020800000000000000000000000000000000000300840003D
:200BA00000040000000000000C0001010C00020817000004080201000000000200000F00D6
:200BC0000B00040000000000300000020F02100120084004280000000000045100000000C9
:200BE000000000000000000000000000000000000F000000040400041220000000000000A8
:200C00000000000000000000000000000000000000000000000000000000000000000000D4
:200C20000000000000000000000000000000000000000000000000000000000000000000B4
:200C4000000000000400000F00000000000000000000000000000008000000000000000079
:200C60000000000000000000000000007438000F00006F0F0000000000000000000000003B
:200C80000000000000000000000000000000000000000F2F0000006F000000000000001196
:200CA0000008000800000000000080000000000000000000000000000000000000000000A4
:200CC000000000000000000000000000000000000000000000000000000000000000000014
:200CE0000000000000000000000000000000000000000000000000000001000000000000F3
:200D00000000000000000000000000000000000000000000000000000000000000000008CB
:200D2000000800010001000000000010000000000000000000000000000000000000000099
:200D4000000040000000000000000000000000000000000000000000000000000F00040040
:200D6000000000000000000000000000000000000000010000000000000000000000000072
:200D8000010002000000000000000000000000000000000000000000000000000000000050
:200DA000000000000000000000000000000000000000000000000000000000000000000033
:200DC0000000400000000000000000000000000000000000000000000000000000000000D3
:200DE0000000000000000000000000000000000000000000000000000000000000000000F3
:200E00000000000000000000000000000000000000000000000000000000000000000000D2
:200E20000000080000000000000000000000000000000000000000000000080000000000A2
:200E4000000040000000000000000000000000000000000000000000000000000000000052
:200E6000000000000000000000000000000000000000000000000000000000000000000072
:200E8000000000000000000000000000000000000000000000000000000000000000000052
:200EA00000000000000000000000000000000000000000000000000000000800000000002A
:200EC0000000400000000000000000000000C000000000000000000000000000000004000E
:200EE0000000000000000000000000000000000000000000000000000000000000000000F2
:200F00000000000000000400000004000000000000000000000000000000000000020000C7
:200F2000000080000000000000000000000000000000000000000000000000000000000031
:200F4000000000000000000000000000000000000000000000000000000000000000000091
:200F6000000000000000000000000000400000000000080000000000000000000000000029
:200F8000000000000000000000000000000000000000000000000000000000004000000011
:200FA00000000000000200000000000000000000000000000000000000000000000000002F
:200FC000000000000000000000000000000000000000000000000000000000000C00000005
:200FE0000000000000000000000000000000000006000000000000000000000000000100EA
:20100000000000000000000000000000000000000000000000000000000000000080000050
:2010200000810000040000821000402010000A000088400000A00012020840110000020048
:201040004000001904A000000000000210000102000500A00008408202000480440800003D
:2010600080000001000500000000000000401400000000000002000080011008000000807B
:20108000000014000000000000000000000000000000008000000000000000000044100068
:2010A00000030100000004100000002004080080400000021000000000A000100000080062
:2010C0000008000000000040000000000000000000000010000000000000000091007D00AA
:2010E000B700000000001C00F500DB00070000000000F100610000000000000000002600CE
:20110000B0004800000010000000000000000000000000000000000000000000080280003D
:201120000200000080000888000015000080200000400000008000000000154201040104C7
:20114000005020000000000000800044000001008002200088000020088000000000000088
:2011600000000000000000000000000000000000000000000000000904000000000800401A
:201180000000080000000000000000000000000000000000000000000000000044000008FB
:2011A00000040011000400060500000002400800000400C0800000000000080004008000F1
:2011C000005820008000010000020500000000001000002000000000000000001C00EB00D8
:2011E000850000000000B000B1005E00000000000000430043000000000000000800070016
:201200000000030000004000000001000000000000000000000000000000000004A00000E6
:201220000000000000000082000000001000080000000000000800000000000004040800FC
:201240000045004400A80000000000001000080000000015040000820082080044080000D4
:2012600000000000000000000000000000000000000000000000000000000000000000006E
:2012800000000000000000000000000000000000000000000000000000000000002000002E
:2012A000000000000000000004000000000000800000000010000801000000000000001081
:2012C0000004080000000000000000000000004802000000000000000000000007000900A8
:2012E0000600000000000E00E600DB00070000000000000000000000000000000000000012
:2013000000004000100000000000000000000000000000000000000000000000100040002D
:2013200000004000000008042000000000000000000004000100004400004128000000008F
:2013400040000025000000008000000000000000000020000000000020080000010200005D
:201360000242000000010000000000802002040400000000004104104200002400000008BB
:20138000000001000000000000000000000000000000400000000000000000000004000008
:2013A00000000000000000000000000802400800000440C8004000108004080D94048000CE
:2013C000205800080001000000004010020020000000400000000000000000001A00400080
:2013E000400000000000800020006000890010000000FF0084000000000000000000000091
:20140000000001000000000000000000000000000000000000000000000000001480808037
:201420000400000109000822000026004000106002020800001800000000664004000100CF
:20144000000000200888020040800018441001000100802084120000040000000000000072
:2014600080000000000000000040001000000000000002800000000000404000000000009A
:20148000000000000000000000000000000000000000000001020000000000000040000009
:2014A0000000090000000000000000009092083204000000D480180100000020000000181E
:2014C00000040080002040000000000000108000401004200000000000000000AF00EF0086
:2014E000DF0000000000FF00BF004F00800030000000000000000000000000000000000050
:20150000020000000000000000000000000000000000000000000000000000008044000005
:20152000000048000008000000000004082000480002000000A09000800022202A001200B7
:20154000440000128000C000000040040000940200001900080000800200800400000400F0
:201560000010000008000204000002200600481000000000008411004400001200010000E1
:20158000000020200000000000000000000000000000000000000000008000020000000089
:2015A00000000100000000000000000002020C0000000080004000008020000580048010A1
:2015C0002440002800000000000000000000000000000000000000000000000054004400E7
:2015E0001500000000003900EF00DA0024003C000000FF006100000000000000000009000B
:201600000000000000000000000000000000000000000000000000000000000008000000C2
:20162000049040000008000001000610220000000006090032808800002506090051005077
:201640000000001440861100008020A000110480401400019402400004200040000000003B
:201660000004001000000000000000000000000000002800010000010000620800000000C2
:20168000000082041400000000000000A208000000000000080400000000000000000200F8
:2016A0000000000008100000080000010000002426008842941210090001042400001030CD
:2016C00090000088000000000040100005000102000000000000000000000000F400F400B2
:2016E000F50000000000FF00FF007F00600000000000F000B0000000000000000000000078
:201700000000000000000000000000000000000000000000000000000000000000000028A1
:20172000000000000000020200000000A200040000000000004804120000000002018D0011
:201740000008000004800040000000410008800084800800040000800E8000800000000056
:20176000000000000000000000000000000000000000000000000000000000000000000069
:20178000000000000000000000000000020000000000000000000000000000000000000047
:2017A000000000000000000000000000020000000000000000000400002800058004000072
:2017C0000000000200010800000000000000000000000000000000000000000006000100F7
:2017E0000F00000000009D005A00DA00000000000000000000000000000000000000000009
:20180000000004000000000000000000000000000000000000000000000000000881004AF1
:20182000164000000000881208A00040000400620000202210000010087000100000080078
:2018400000100009008204080800005800910480080200662605005004200042000000001B
:20186000000000000000000000000000000000000000000001000000200000000000010046
:20188000002020000000000000000000000000000000000000000000000000000000000404
:2018A0001000000020000000000000000000008404010240808010020820010000000021D1
:2018C00090000808000000000000000000000000000000000000000000000000FF00FF006A
:2018E0007F0000000000EF00FF00FF00000000000000210021000000000000000100000039
:201900000000000000000000000000000000000000000000000000000000000000000000C7
:2019200001140000000000000000000800000000002000240000000011144020040140106C
:201940000240101000240000000000290010400400001005050000201180040010000002A3
:2019600000000000001000008000001000100C010000000C000940200000000000000040F5
:2019800000000000000000000008040000000000000000000000000000000000000000003B
:2019A0000001001000000040000000000000000000000000000000000000001000000000C6
:2019C0000000000000042000000000004000000000000000000000000000000070004000F3
:2019E0006000000000007600EE00F7000300240000000F00010000000000000000002000D5
:201A000002000000000080000000000000000000000000000000000000000000200810000C
:201A2000002100000800000000001C028000010C00000000008800230011104000000000C6
:201A40000000044A800100000000044A0000000000100842000000000401104000000000BA
:201A6000000000000000000000000000000000000000000000000200000000000002000062
:201A8000000000000000000000000000000000000000000000000000000000000002000044
:201AA000000000000000000000000000000000000000000000000000000000000000000026
:201AC000000000000000000000000000000000000000000000000000000000005200A40010
:201AE000090000000000F000F000F00000000000000001000100000000000000000000000B
:201B0000000000000000000000000000000000000000000000000000000000001100101094
:201B20000000002411200040000220000020020000400008100A00B0000220000020044133
:201B40004014020101081000000000A8002204000000002468000200020010040000800122
:201B6000100200100000000000000224000000000000000800020000000000010000000012
:201B80004000A00001401028000000001400020000000000000000000000000001000004D1
:201BA000000000000000000000000000000000000000000000000000000000000000000025
:201BC000000000000000000000000000000000000000000000000000000000006E003A005D
:201BE000A30000000000EE006700EF00E000300000008100B00000000000000000000100BC
:201C00000000000000000000000000000000000000000000000000000000000000000000C4
:201C2000000000000000000000000000000000000000000000000000000000000000004064
:201C4000004008000080000000000002000000100080080000000040008000000000000062
:201C6000000000000000000000000000000000000000000000000000000000000000000064
:201C8000000000000000000000000000000000000000000000000000000000000000001232
:201CA000000000000000000000000000000000000000000000000000000000000000000024
:201CC0000000000000000810040021000000000000000004000000000000000000000000C3
:201CE00000000000E0003000B00030000000000000000000000000000000000000000000F4
:201D0000000000000000300000000000000000000000000000000000000000000000000093
:201D20000000000000000000000000000000000000000000000000000000000000000100A2
:201D400000000000000000000000000000000010000008000000000000000000000000006B
:201D600000000000000000000000000000000000000000000000000000000000000000085B
:201D800004000000000000000000000000000000000000000000000000000000000000003F
:201DA000000000000000000000000000000000000000000000000000000000000000000023
:201DC0000000200002000000000000000000000000000000000000000000000000000000E1
:201DE0000000000040000000900000000000000000000000C0000000000000000000000053
:201E00000000000000002000000000000000000000000000000000000000000000000000A2
:201E200000000000000000000400000000000000000000000000000000000000000000009E
:201E400000000000000000000000000002001000040000000000000000000000000000006C
:201E600000000000000000000000000000000000000000000000000400000000000000005E
:201E800000000000020020000000000000000000000000000000000000000000000000041C
:201EA000000000000000000000000000000000000000000000000000000000000000000022
:201EC0000000200000000000000000000000000000000000000000000000000000002000C2
:201EE0000000000000000000D0000000000000000000400000000000000000000000800052
:201F00000000000000000000000000000000000000000000000000000000000000000000C1
:201F20000000000000000000000000000000000000000000000000000000000000000000A1
:201F4000000000000000000000000000000000800000000000000000000000000000000001
:201F6000000000000000000000000000000000000000000000000000000000000000000061
:201F80000000000000000000000000000000000000000000000000000000000000000080C1
:201FA000000000000000000000000000000000000000000000000000000000000000000021
:201FC0000000200000000000000000000000000000000000000000000000000000000000E1
:201FE0000000000000000000100000000000000000000000000000000000000000000000D1
:202000000000200000000000000000000000000000000000000000000000000000000000A0
:202020000000000000000000000000000000000000000000000000000000000000000000A0
:20204000000000000000000000000000000000000020000000000000000000000000000060
:20206000000000000000000000000000000000000000000000000000000000000000000060
:20208000000000000000000000000000000000000000000000000000000000000000000040
:2020A000000000000020000000000000000000000000000000000000000000000000000000
:2020C0000000200000000000000000000000100000000000000000000000000000000000D0
:2020E0000000100000000000200000000000000000000000000000000000000000000000B0
:202100000000000000000000000000000000000000000000000000000000000000000000BF
:2021200000000000000000000000000000000000000000000000000000000000000000009F
:2021400000000000000000000000000000002001000010000000000000000000000000004E
:2021600000000000000000000000000000000000000000000000000000000000000000005F
:2021800000000000000000000000200100000000000000000000000000000000000000001E
:2021A00000000000000000000000000000000000000000000000000000000000000000001F
:2021C0000000000000000000000000000000000000000000000000000000000000000000FF
:2021E00000000000000000007000000000000000000000000000000000000000000000006F
:20220000000000000000000000000000000000000000000000000000000000001701100096
:202220000000000000001701060100001F01100000000000140007000C000901000000001E
:2022400000000000C000000010002F101000100000000000000003000300000000303000E9
:2022600030008F00000C0C0000000000100000000000000001000000000000002030000026
:202280000000000000000000400000000000000000000000000000000000000000000000FE
:00000001FF
