:2000000000000000000002000080000000000000001B0000030300FC82CCA8BB0090000BF5
:2000200001400814004FF00003034420F040000BF00300000642810901010E000000F001B9
:2000400007012000071F100002488502F00000E0001F0F40008A80000000014532000000B1
:200060000400BD000CFF7FFF42A070000C0000000000000004040400330300000009400944
:200080003009000000000000000000000000000000000000000000000000000080000000A7
:2000A000800100640006106005082065F105086A00004010252000C001400E20040101021F
:2000C000712F028025610002046021028000400030E00F1F0200802000000000000000004F
:2000E00000000000000000000000000000000000200004000404000433300000000000006D
:200100000000000000000000000000000000000000000000000000000000000000000004DB
:2001200046A9A954000200002A04540080A5564A00000101331A0C6000000002004D0092EE
:20014000FFFF00000ECC3013400013B50000FFFF00000000000000200000000460020000F8
:200160000000000000FFFFFF00A00004180000000000000004040400430000004000C00077
:200180004040C000C000C000C000C0000000000000000000000000000000000001240018E2
:2001A000FF180006051A7824083F0700C0010700033400081000074001240000222C051033
:2001C0003A020400030600000101001E001F00607F00800080020000000010006003000043
:2001E00000D015021EFFFFFF00AF0F04180000002700000004040404330000004000C000B9
:200200004040C000C000C000C000C00000000000000000000000000000000000000004009A
:2002200004000000000000000100000200000200000000000000000C08020000000808048B
:200240000000010002010000000002010402080802010104000000000000154523060000F6
:200260000000000000FFFFFF00A00001180000000F000400040404040022000040008000C3
:2002800040408000400080004020800000000000000000000000000000000000300000028C
:2002A0000C00010017000000000000000C00020800000F0000000000300040010000000084
:2002C000080001000B000400000000040F08100120024004280000000000040063040000E1
:2002E0000030C24E3EFFFFFF00AF0701180000000F00000004040404222200004000800091
:2003000040408000400080004020800000000000000000000000000000000000000003003A
:2003200000CC000200080A010000000F000000000067000000000010000000000000000056
:200340000000050000AB000400CC0001081801E0020F0400000800000000000000000000FE
:20036000000000000000000000000000000000000000000004040004200000000000000051
:200380000000000000000000000000000000000000000000000000000000000000000A0251
:2003A000000000000000000000000000000000010000000000000000000000000000030039
:2003C0000000050000000000000000000201080201000400000000000000000040060000C0
:2003E0000000000000FFFFFF00A00004180000000000000004040400000000004000C00038
:200400004040C000C000C000C000C00000000000000000000000000000000000000000009C
:200420000000000000000000000000000000000001000A00020001000100020000000000AB
:200440000100060010000000000000011000040003010800000020000000010050030000F0
:2004600000D2001533FFFFFF00AF0F04180000002700000004040404220000004000C00032
:200480004040C000C000C000C000C00000000000000000000000000000000000000000021A
:2004A000000200000000000400040000000000010000000000000000000000080008000021
:2004C0000000000200010000000000000001000800040002000000000000005400000000B6
:2004E0000000000000000000000000000000000000000000000400040000000000000000F4
:200500000000000000000000000000000000000000000000000000000000000000140000C7
:200520000040001073100CAC00DC000280000000730904F0000C00710000000329001000A9
:200540000000000000005E000300140080000FE06000101F200008080000510002000000A5
:200560000000100518FF07FF4020F0050800000000000000040404004404000040A8402050
:20058000000000000000000000000000000000000000000000000000000000000204010153
:2005A00001100620000100020040000000080000010002071001000601100A200008000055
:2005C0000040000000040000004000001007083803400408008820020000014424030000DB
:2005E00000000CBE34FFFFFF0000F0440C0000000100040004040404424400000000000025
:200600000000C0000000400200000000000000000000000000000000000000003700C800D9
:20062000010000009800600001000000000008000200E0005701A80040001700E800000097
:200640000000FF00000204000700000000000001FF00000208000000000010400000000034
:20066000000000000000000000000000000000000000000004040000400000000000000032
:20068000000000000000000000000000000000000000000000000000000000000100020057
:2006A000000000000000080000000000000000000000000000000000000000000000100022
:2006C0000000000000000000010006000300040008001000000000000000000000000000F4
:2006E000000000000000000000000000000000000000080004000004039000000000000057
:200700000000000000000000000000000000000000000000000000000000000000000B00CE
:200720000100060000000B00000010000000300400004000000010020A00010001002401E0
:2007400001000A0800008B000000100070088001070408020000220000004000000000007B
:200760000000000000000000000000000000000000000800040400043390000000000000A2
:200780000000000000000000000000000000000000000000000000000000000080000000D9
:2007A000000020004000180004000804400014004008080050000201000000003F0000007B
:2007C000000040000F000002500001000001C00400023F088800000000000400430000009A
:2007E0000020000512FFFFFF42A07000081000000000000004040400330300000048404849
:200800008048804800000000000000000000000000000000000000000000000001000A003D
:200820000001000A000100020102020102000100000000100100061000001000000010005A
:200840000001000600000000000000000403100803040810000020020000044000000000ED
:200860000000000000000000000000000000000018000400040400041140000000000000FF
:2008800000000000000000000000000000000000000000000000000000000000020405004D
:2008A000000000000710000002400500003C00C20000080400E70018005C00A1000001E3F0
:2008C0000108000007FF000000180000049808580238011F0200008A0000100024030600D2
:2008E00005E0C0000AFFFFFF62A0F0410C00000000000000040404004404000000000000B9
:20090000000040020010301000101012000000000000000000000000000000000000000013
:20092000A17F5200770E00F0009608680000000131C5C23A0000070000000000C0003400DC
:200940005400A000F7FE000100A3005C0000F0FF0F000000000000000000000400000000AC
:200960000000000000000000000000000000000000000800040400040290000000000000D1
:20098000000000000000000000000000000000000000000000000000000000000000000057
:2009A00000000F0194006000CF003000000000009E00600000000000000000000000000036
:2009C00073000000FD0002003000C900000000000001FF000000000000004000000000006C
:2009E000000000000000000000000000000000000000080004040004109000000000000043
:200A00000000000000000000000000000000000000000000000000000000000000000000D6
:200A200000000100000802040000000000010800000000000000000C00000402000200008A
:200A40000000000000000000000000010204010108080402000000000000005145060000DB
:200A60000000000000FFFFFF00A00001180000000F000400040404040111000040008000CB
:200A80004040800040008000402080000000000000000000000000000000000000A10052C3
:200AA000170000000CC002340C5401A00B0004000000000700770F0030F74000303100C2F6
:200AC00000000000000000080800010040000F0F200010F0A0000000000040005106000050
:200AE000002C430E1FFFFFFF00AF0701180000000F0000000404040411110000400080008D
:200B0000404080004000800040208000000000000000000000000000000000009400600041
:200B2000737F0000CFA3305C9EFE600130C5C93A000000000096006800000000000E00F0D4
:200B40000000000100000F00FD00020000FF0000FF00000000000000000010010000000077
:200B60000000000000000000000000000000000000000800040400040090000000000000D1
:200B800000000000000000000000000000000000000000000000000000000000AB000400A6
:200BA00067000000CC310108CC00020C00000000005000A300A000530000000000001000F8
:200BC00008F301040000000000C20F080F00180FE0F000002000000800000000000000000E
:200BE000000000000000000000000000000000000000021204040004414000000000000054
:200C00000000000000000000000000000000000000000000000000000000000000000000D4
:200C20000000000000000000000000000000000000000000000000000000000004000000B0
:200C400000000000000000000000000F00000000000000000000000000000008000000007D
:200C60000000000000000000000000000000002F0F6F00002F00000F000000000000000089
:200C800000000000000000000000000000000000380000000F6F007400000000000000002A
:200CA000000000000000000002000000000000000000000000000000000000000000000032
:200CC000000000000000000000000000000000000000000000000000000000000000000014
:200CE0000000000000000000000000000000000000000000000000000000000800000000EC
:200D00000000000000000000000000000000000000000000000000000000000002000000D1
:200D20000000000000000000000000000000000000000000000000080000000000000000AB
:200D400000000000000000000000200000000000000000000000000000000000000004006F
:200D6000000000000000000000000000000000000000010000000000000000000000000072
:200D8000000000000000000000000000000000000000000000000000000000000000000053
:200DA000000000000000000000000000000000000000000000000000000000000000000033
:200DC0000000000000000000000020000000000001000000000000000000000000000000F2
:200DE0000000000000000000000000000000000000000000000000000000000000000000F3
:200E00000000000000000000000000000000000000000000000000000000000000000000D2
:200E20000000000000000000000000000000000000000000010000080000000000000000A9
:200E4000000000000000000000000000000000000000000000000000000000000000000092
:200E600000000000000004000100000000000000000000000000000000000000000000006D
:200E8000000000000000000000000000000000000000000000000000000000000000000052
:200EA000000000000000000000000000000000000000000001000008000000000000000029
:200EC000000000000000000000000000000000000000000000000000000000000000000012
:200EE0000000000000000000000000000000000000000000000000000000000000000000F2
:200F00000000000000000000000000000000000000000000000000000000000000000000D1
:200F20000000000000000000000000080000000000000000010000000000000000000000A8
:200F400000000000000000000100004001000000000000000000000000000000000004004B
:200F6000000000000000000000000000000000000000000000000000000000000000000071
:200F800002000000000001000000000000000000000000000000000000000000020000004C
:200FA000000000200000000000000000000000000000000000000000000000000000000011
:200FC000000000000000000000000000000000000000000000000000000000000000000011
:200FE000000000000000000000000000400000000000000000000000000000400000000071
:201000000000000000000000000000000000000000000000000000000000000000000000D0
:20102000000000200000000000000000800000000000000000000000000000000000000010
:20104000000000000000000000000000000000000000000000000000000000000C00000084
:20106000000000000000000000000000000000000400040000000000000000000000000068
:20108000000000000000000000000000000000000000000000000000000000000000000050
:2010A0000000000000000000400000000000000000000000000000000000000000000000F0
:2010C000000000000000000000000000000000000000000000000000000000000000000010
:2010E0000000000000000000000000000000000000000000000000000000000000000000F0
:201100000800000000000000000000000000000000000000000000000000000058000180EE
:201120005400800002000040000000000040001022020000002000004C05000000010000B3
:20114000000000280004008020004000000120000010000814C08000802000000000000056
:20116000000000000000000000000000000000000000000000000010000000040810000043
:20118000000000000000000020204000000000000000260000000000000000000200201077
:2011A000080000044000222020000480108000100000404000000000202401000000000098
:2011C00024100080000004040000000000000000001080400000000000000000FF0008007C
:2011E000B30000000000530065003E0000000000000044000400000000000000400084003A
:201200000000B0000000080040000000000000000000000000000000000000000082000054
:20122000000000490021000200002000800000000000901008820004000405014500001015
:2012400000000055000800006000200200000424000400514400001000900200000000004C
:201260004000A01800000000800006000000000000000020000001000000000001010008C5
:20128000000000000000000000000000000000000000000000000000000000000401000049
:2012A0000000160000501202600100000000000000000000000880080000000000200000A3
:2012C00000000000000880000000000000010000001100080000000000000000D9002B0068
:2012E000780000000000F200F600BE00E0003000000001000D0000000000000002000000B0
:2013000001004800400019008000040000000000000000000000000000000000180421006A
:20132000200400006080800080000080800000400000000010110300400008440040481120
:20134000000010A10020008000400040000068000210800010000140000000100000010060
:2013600000000002810080140000011010800400000000008000081100042081000004046B
:201380000000020000000000000000000000000000000000000000000000000000800000CB
:2013A0000000020000000000800000100040080060004008820000064085802001000000BD
:2013C0002000000000400004000004000600000008000201000000000000000067009B0092
:2013E0000900000000009500BE002D0088003C000000FF008600000000000000000000001B
:201400000000000020000000900000000000000000000000000000000000000028000003F1
:2014200020840000080000000000042004880000040010010080000008000404002000008B
:20144000000000100000000004000006000000000804020400000004208800200000000094
:20146000000000000000000000000000000000000000000000100000400100100400000007
:20148000020100040000000000000000010000000000000000000000000000004400000000
:2014A00000000010002000000000000020000000020000000020100C060000101044020A28
:2014C00004000000001000000040100000004040000200000000000000000000E7006400DB
:2014E0007700000000003000C0007200000000000000B400B4000000000000000400200087
:201500000000080000000200000004000000000000000000000000000000000000000000BD
:20152000000000000000000000001500000000000000080800000000000015010A00044220
:2015400000000008040500000080000040000002000000006200000800000000000000004E
:201560002000000000000000000812010000000000000006000000000008006100000000C1
:20158000001000000000000000000000010000000000000000000000000000000000000238
:2015A000000000008400000020001000000000000000400000100804080080000000000093
:2015C00020000000000000000020400020000C820404000000000000000000000000E000F5
:2015E000600000000000170009000F00400010000000F000200000000000000000004000BC
:2016000000000000100000002000400000000000000000000000000000000000000040001A
:20162000001100000000000000000000200100000000200000A00005002080484002001079
:201640002C040A040000000004000002000100000000081002010000248000004000000046
:20166000000000000000040000000000000000000000000000000000000000000000000066
:20168000000000000000000000000000000000000001000000000000000000000000200029
:2016A0000000000000200001000004000000000028000010000040080680100030000002BD
:2016C00004000204000000009404108000000004000001100000000000000000580000006B
:2016E0002C0000000000300061007100010004000000000000000000000000000000840033
:2017000000008000000008000000000000000000000000000000000000000000100004002D
:201720000800400000088000101011000082080000000000148100000022110000084020EE
:2017400040050005000000002000820400004810000208B0500001081002440004000000D4
:20176000000A040000000000000000000010000400400980000000002880000200000000D4
:201780000000008000000000000000000000000000000000000000000000000000000000C9
:2017A000000000400000000000010000000000000000040000120280100000010000080037
:2017C000000000000000008400400000080000000000048000000000000000003200EC009B
:2017E0000B0000000000F000FE00FF00E40000000000F0008000000000000000000000009D
:201800000000000002004000120000000000000000000000000000000000000002802000D2
:2018200028008004000201000004800220010A8004101000044448001018810200015020F8
:201840000000A90080004004000080000010800002040480000280010200000014000000E8
:20186000800800000400000000010402000000000100A8800002802400006801000100009C
:2018800000002800000000000000000000020000000000000000000000000000000100001D
:2018A00000120000000000000000000000000004000020100000400800400010200000002A
:2018C000000000000800000000008301000000000008002000000000000000007D00B9001E
:2018E0006F00000000001D009C008800C60024000000FF00610000000000000000000800E6
:20190000000000000200000002000C00000000000000000000000000000000002100000096
:20192000680000800000000008000482800001000480000A00410054000000180000000075
:201940000000880000000000000000080000000010000000000000000000000000000000E7
:20196000000000000000000000000000000000000000000001000000000000000000010065
:201980000000000000000000000000000000000000000000000000000000000000108000B7
:2019A0000100000000000000000000186980000000000420040202020801008198000401D0
:2019C00000000080004000060000000000080200100000000000000000000000FA00F0003D
:2019E000F9000000000020002000000000000000000001000100000000000000000012009A
:201A0000400000008000000040000000000000000000000000000000000000002014014051
:201A200000040002008050080800400408610006000401200090000000040004200001200F
:201A400000000808008021200004420400148100000800620011004400403006008400809D
:201A6000040004000001001000000010200444000000000004412000000000000000000868
:201A8000000000000000000000000000000000000000000000000000000000000000000442
:201AA0000000000000040040008040000044400400000008000023420800003000100220C3
:201AC00000000880C09001000000010800020000403100000000000000000000AF007F0083
:201AE000EF0000000000FF00FF00FF002200240000000F00040000000000000000000000A1
:201B000000000400010004000000000000000000000000000000000000000000040001882F
:201B200020090100000044210800440000002092000004860400420B0108000000042211FD
:201B400048000402200000800000100000002200001000080000000000000040000000000D
:201B600000080001000000000002000000000000000004000800000000000000200000002E
:201B8000000000001000000800000000801010400000000000000000000000000400010048
:201BA0002804000204020300410000000000000000000000000000000000000000000000AD
:201BC00000000000000000000000000000000000000000000000000000000000FF007F0087
:201BE000FF0000000000230065001000C00000000000020002000000000000000000E000AA
:201C000080003000000000000000000000000000000000000000000000000000000405000B
:201C2000001A030008204108000012448090002401080022000201002014520100040205CC
:201C4000004010022080008800840044210500404000180280100006001040040004801004
:201C600000000000000000000000000040000060000000000000000040002208000000005A
:201C8000802000010000000000000000000000000000000000000000000000000000404023
:201CA000E04400481028A0002040040000000000000000000000000000000000000000007C
:201CC00000000000000000000000000000000000000000000000000000000000F700FF000E
:201CE000FF0000000000FF00FF007F00070000000000F000B00000000000000006000800B3
:201D000000000B0000000000000000000000000000000000000000000000000000000000B8
:201D200000000000000000000000000000000000000000000000000000000000000008009B
:201D4000800080000000800000000001020000400000880020000000000080000000000098
:201D6000000000000000000000000000000000000000000000000000000000000000000063
:201D8000000000000000000000000000000000000000004000000000000000010000000002
:201DA000000000000000000012000000000000008000000000000000000000000000000091
:201DC0000000000000000000000000020000004004000004000000000000000000000000B9
:201DE00000000000E0003000F00030000000000000000000000000000000000000000000B3
:201E00000000000000001000000000000000000000000000000000000000000000000000B2
:201E20000000000020000080000400080000000000000000000000000000000000000800EE
:201E4000000000000000000000000000000000820000000080000000000000000000000080
:201E600000000000000000000000000004000000100002001000000000000000000000003C
:201E8000000000000000000000000000000000000000000000000000000000002000000022
:201EA00000040080100000000000000000000000000000000000020000000000100000007C
:201EC000000008800000401000000000000000000000000000000000000000000000F0003A
:201EE00000000000400000005000100000000000E000200000000000000000001000000032
:201F0000200010000000000000000000000000000000000000000000000000000000000091
:201F2000000000000000000000000020000000000000000000000000000000000000000081
:201F4000000000000000000000000000000040000000080000000000000000000000000039
:201F6000000000000000000000000000000000000000000000000000000000000000000061
:201F8000000000000000000000000000000000000000000000000000000000000000000041
:201FA00000000000100002000000000000000000000000000000000000000000000000000F
:201FC000000000800000000000000000000000000000000000000000000000000000200061
:201FE000000000000000000090000000000000000000000000000000000000000000000051
:202000000000000000000000000000000000000000000000000000000000000000000000C0
:202020000000000000000000000000000000000000000000000000000000000000000000A0
:20204000000000000000000000000000000000000000000800002000000020000000000038
:20206000000000000000000000000000000000000000000000000000000000000000000060
:20208000000000000000000000000000000000000000000000000000000000000000200020
:2020A000000000080000000000000000000000000000000000000000000000000000000018
:2020C000000000800000000008000000000000000000000000000000000000000000000078
:2020E000000000000000000080003000000000000000000000000000000000000000300000
:2021000000000000000040000000000000000000000000000000000000000000000000007F
:2021200000000000000000000000000000000000000000000000000000000000000000009F
:2021400000000000000000000000000000000000000000000000000000000000000000007F
:20216000000000000000000000000000080000000000000000000000000000000000000057
:2021800000000000000000000000000000000000000000000000000000000000000000003F
:2021A00000000000000000000000000000000000000000000000000000000000000000001F
:2021C00000000080100000000000000000000000000000000000000000000000000000006F
:2021E0000000100000000000000000000000000020000000000000000000000000000000AF
:2022000000000000000000000000800000000000000000000000000000000000000000003E
:2022200000000000000000000000000000000000000000000000000000000000000000009E
:202240000000000000000000000000000000008000000000100000000000000000000000EE
:2022600000000000000000000000000000000000000000000000000000000000000000005E
:2022800000000000000000000000000000000000000000000000000000000000000000003E
:2022A00000000000000000000000000000000000000000000000000000000000000000001E
:2022C0000000000000000000000000000000000000000000000000000000000000000000FE
:2022E0000000000000000000100010000000000000000000000000000000000000000000BE
:20230000000000000000000000000000000000000000000000000000000000001701100095
:202320000000000000001601130100001D01100000000000190005001500190100000000F7
:20234000000004000000000000000000C000000010002010900010000100000000000300D5
:2023600003000000F00F0F000F000000000C0C000000000010000000800000000101000093
:20238000000000000A0C00000000000000000000400000000B0019010000000000000000C2
:00000001FF
