:2000000000000000000002000080000000000000004B000002330CF0C283E0AE0102060105
:20002000001000000001000A0000000001000A00020001000001000201010206100000007A
:20004000000000000000000000000000040303041008081000000802000010400000000008
:2000600000000000000000000000000000000000010004000404000422400000000000000D
:2000800000000000000000000000000000000000000000000000000000000000000004005C
:2000A00001000000000000040000000000000200000000000800000800000801000002001E
:2000C0000400000002000000000000020404020108020108000000000000150032060000AD
:2000E0000000000000FFFFFF00A00001180000000000000004040404240200004000800054
:20010000404080004000800040208000000000000000000000000000000000000B00040030
:200120000000000F0CCC0102300040000C08020100000000080001100000000000CC0F0159
:20014000300000001767000000AB0004200010E0400F0F180A08000000000400320600006E
:2001600000C0243E3EFFFFFF00AF0701180000000F00000004040404222200004000800030
:200180004040800040008000402080000000000000000000000000000000000000000800B7
:2001A0007708000400000002F7020000C000340C5400A00100000700000000003100C200D2
:2001C00000000000A100520000000000F00200010F080004000000000000005100000000CD
:2001E000000000000000000000000000000000000F000400040400041220000000000000AE
:200200000000000000000000000000000000000000000000000000000000000000000000DE
:20022000010102020000001000000000000000000001000A00010006000200010000100083
:200240000000080001000610000000001010080404080303000000800000000100000000C0
:20026000000000000000000000000000000000000000000004040000130000000000000063
:2002800000000000000000000000000000000000000000000000000000000000000000005E
:2002A00000000F0000000000CF003001FD00020000C5003A307FC90000A3005C940E60F0C8
:2002C0009E9660687300000000FE0001000000FF0000FF000000000000004004000000006E
:2002E00000000000000000000000000000000000000008000404000400900000000000005A
:200300000000000000000000000000000000000000000000000000000000000000000000DD
:2003200000000000020000000100000004000005000802000000000008000000000004009B
:20034000000001000000080B000002000108040408020201000000000000540030050000E0
:200360000000000000FFFFFF00A00004180000002500000004040404000000004000C0008F
:200380004040C000C000C000C000C00000000000000000000000000000000000000000001D
:2003A00000000100000000000000000000000400000000000000080000000000000002002E
:2003C0000000000000000000000000000200080001000400000000000000000030050000D9
:2003E00000D0002132FFFFFF00AF0F04180000000000000004000404010000004000C000F6
:200400004040C000C000C000C000C000000000000000000000000000000000002401180659
:20042000340008003F0000100201000A01001E101A01240201000000000040002C00100037
:20044000060000001800060024020001001060031F08000420000008000000013200000058
:2004600005B00D0006FF7FFF42A070000C0000001800040004040404134300000009400905
:20048000300900000000000000000000000000000000000000000000000000004000148B44
:2004A000500002103F0A00010000000B4000080B5001010A00002010000040300F01000620
:2004C0000400081040011824800000400080C0073F080070280000880000041013000000EE
:2004E0000020050006FFFFFF42A07000081000000000000004040400330300000048404858
:20050000804880480000000000000000000000000000000000000000000000000001000E3C
:200520000000F0400104082101040E010280850007251000F02500000000F0100305442085
:200540000771200206F18108F08000000F0F00400080F030002002020000400000000000AF
:200560000000000000000000000000000000000020000400040400043330000000000000E8
:2005800000000000000000000000000000000000000000000000000000000000400100001A
:2005A000E70018000007E30010000000000000083C00C20108000000FF0000005C00A10037
:2005C00018070000000204050402000598041F085802380100022A000000001063020500EA
:2005E00004C0E0000AFFFFFF62A0F0410C0000000000021104040404444400000000000066
:20060000000040020010301000101012000000000000000000000000000000000001000213
:200620003100080700010006A008530000040C00001000205010A320000400010008000008
:20064000F340040000400000C24008000F080038F0400007000A0280000000050000000002
:20066000000000000000000000000000000000000000080004040004449000000000000092
:20068000000000000000000000000000000000000000000000000000000000000000000456
:2006A00000000008000000000000000100000000000000020000000000000000000000002F
:2006C00000000000000000000000000000080004000200010000000000000000000000000B
:2006E00000000000000000000000000000000000000008000004000430900000000000002A
:200700000000000000000000000000000000000000000000000000000000000000000000D9
:200720000000000000000000000000000000000000000000000000000000000000000000B9
:20074000000000000000000000000000000000000000000000000000000000000100000098
:200760000000105028FF07FF4020F0050800000000000000000004000004000040A840203F
:20078000000000000000000000000000000000000000000000000000000000000014000045
:2007A000000900F000005E00291010AC73000C0003001403000C00710000000000DC0002F9
:2007C0008000000073000400004000100F0010E0801F6000800002080000540046020000AE
:2007E00000B0C0E02AFFFFFF0000F0440C00000000000000040404004404000000000000EE
:200800000000C0000000400200000000000000000000000000000000000000000E00F004D4
:20082000000001020000000096006800A3005C007F00000000080000C5003A000000000032
:2008400000000001FE000100000000000001FF080002000400000000000004003006000050
:200860000000000000FFFFFF00A00004180000000F00040004040404301000004000C0005C
:200880004040C000C000C000C000C000000000000000000000000000000000000000000117
:2008A000000200000000000000000000000001000000000000000000000000000000000035
:2008C0000000000000000000000000000001010000020000000000000000001030060000CE
:2008E00000D010523AFFFFFF00AF0F04180000002700000004040404200000004000C0005E
:200900004040C000C000C000C000C0000000000000000000000000000000000000000C0A81
:200920000000000001000005000002000200000000000000000000000000000000000000AD
:200940000800040000000000000001030401010208080204000000000000510016030000FF
:200960000000000000FFFFFF00A00001180000000F000000040404040011000040008000D1
:200980004040800040008000402080000000000000000000000000000000000000000000B7
:2009A000003010400000000000300F00CC0C0102AB170400000C0001CC0002000800010FE4
:2009C00000000000670B0004000800010020E010180F0F40080A00000000000456030000A3
:2009E0000003E24C3DFFFFFF00AF0701180000000000080004040404119100004000800043
:200A0000404080004000800040208000000000000000000000000000000000000101000034
:200A20001090070B3A40040B2203052003010000054F7800C0400714FF480002081F0700CF
:200A4000030300000100000101420009800000E0001F7F40028A00000000404500000000F3
:200A600000000000000000000000000000000000000000000404000033000000000000003B
:200A80000000000000000000000000000000000000000000000000000000000060000200F4
:200AA00061800256004610A92000C00105006A00060E60300833650C004000132F0080005C
:200AC0000100640040FF2000012A02541F0000FF0000E00000008000000000000000000053
:200AE0000000000000000000000000000000000000000000040400003300000000000000BB
:200B000000000000000000000000000000000000000000000000000000000000FD000200D6
:200B20009477600000000F00005400A0000000000000000700C000349EF7600073A10052F1
:200B4000CF3130C2000000083000C9000000000FFF0000F000000000000010000000000094
:200B600000000000000000000000000000000000000000000404000010000000000000005D
:200B80000000000000000000000000000000000000000000000000000000000001FF000055
:200BA000010000B55700A8010204E0000700000437A9C85400CCFF13E8000002404D179294
:200BC00000020400981A606000A5084A000000FF0000FF0002000020000040040000000042
:200BE000000000000000000000000000000000000000080004040004409000000000000011
:200C00000000000000000000000000000000000000000000000000000000000000000000D4
:200C20000000000000000000000000000000000000000000000000000000000000000000B4
:200C400000000000040F000000000000000000000000000000080000000000000000000079
:200C60000000000000000000000000000F006F0F00002D003800007400000000000000000E
:200C8000000000000000000000000000000000000F2F6F00000000000000000000000000A7
:200CA0000000000000000000000000400000000000000000000000000000000000000000F4
:200CC000000000000000000000000000000000000000000000000000000000000000000014
:200CE0000000000000000000000000000000000000000000000000000000000000000008EC
:200D00000000000000000000000000000000000000000000000000000000000000000000D3
:200D200000000000000000400000000000000000000000000000000000000000000000046F
:200D400000000000800000000000000000000000000000000000000000000000000004000F
:200D600000000000000000000000000000000000000000000200000000000000000004006D
:200D8000000000000000000000000000000000000000000000000000000000000000000053
:200DA000000000000000000000000000000000000000000000000000000000000000000033
:200DC000000000000000000000000000000000008000000000000000000000000000000093
:200DE0000000000000000000000000000000000000000000000000000000000000000000F3
:200E00000000000000000000000000000000000000000000000000000000000000000000D2
:200E20000000000000000000000000000000000000000000000000000000000000000004AE
:200E4000000000000000000000000000000000000000000000000000000000000000000092
:200E600000000000000000000400000000000000000000000000000000000000000000006E
:200E8000000000000000000000000000000000000000000000000000000000000000000052
:200EA00000000000000002000000000000000000000000000000000000000000000000042C
:200EC000000002000000000000002080000000000000000000000000000000000000000070
:200EE0000000000000000000000000000000000000000000000000000000000000000000F2
:200F00000400000000000000000000000000000000000000000000000000000000000000CD
:200F20000000000000000000000000000000000000000000000000000000000000000000B1
:200F4000000000000000200000000000000000000000000000000000000000000000000071
:200F6000000000000000000000000000000000000000000000000000000000000000000071
:200F8000000000000000000000000000000000000000000000000000000000000000000051
:200FA00000000000000000000000000000000000000000000000000000000000000000042D
:200FC000000002800000000000001000000000000008000000000000000000000000040073
:200FE0000000000000000800000000000000000000000000000000000000000000000000E9
:201000000000000000000200000000000000000000000000000000000000000000080000C6
:201020000000100000000000000000000000000000000000000000000000000000000000A0
:20104000000000000000000000000000000000000000000000000000000000000000000090
:201060000000000000000000000000000000020000000080000000000000000000000000EE
:20108000000000000000000000000000000000000000000000000000000000000000000050
:2010A00000000000000000000000000000000000000000000000000000000000000000042C
:2010C000000000000000000400000000000000000000000000000000000000000C00000000
:2010E0000000000000000000000000000000000003000000000000000000000000000000ED
:20110000000000000000000000000000000000000000000000000000000000001A080000AD
:2011200080011044800000008008118422420000428C002000100000004000011280040004
:20114000001008008018000040045000208004000200006408400000008001240000000054
:2011600000000000000000000000000000000000000000000000000000000002000000006D
:2011800000000100000000000000000000000000000000000000000000000000000100014C
:2011A0000140100011000102000000108888400400000800C00000240141010026090040C8
:2011C00090100800000001002000040000000000040100000000000000000000FE00F1004E
:2011E000FD0000000000F700FE00FA00000000000000800080000000000000001000800073
:2012000080000000100000000100000000000000000000000000000000000000000080229B
:2012200000000000040202000200000000100000000000000008000000001000808008086C
:2012400000100040000008000000000000001000000000000A0000000000000A00001004FE
:201260000000000408000400080000010000000008002200041240000000A801000002002A
:20128000000000080004200000000000850008000200000000000000002000040000000C63
:2012A0004000000008120A0000800000000042000004000004100000080822400002D02389
:2012C000821000004080002020120000100804000004000000000000000000000D001D0020
:2012E00002000000000002000400C300420024000000FF0021000000000000000600000097
:2013000000002400A2000000000029000000000000000000000000000000000000888800CE
:2013200080090024000840048008008480402400411C0A00808040810000810000000030EB
:201340000044210400000009801440000008A0004005A000004080140000829400000000D0
:2013600002400000000000000000000000000000000000000000000000000000000000002B
:2013800000000000000000000000000000000000000000000000000000000000000000004D
:2013A000800000000000000000000000008800040000411000048C0002480100060880085F
:2013C00010146080122110800000004041000400000140000000000000000000FF00FE0083
:2013E000FF0000000000FC00FE00FE000000000000000000000000000000000000000000F6
:201400000000000000000000200000000000000000000000000000000000000000080002A2
:201420008000008408020200000000804400800020000200000402300010620000500090AE
:20144000000900064800000202000000040620000000000080000804000022002000000039
:2014600020800000004000140000001040010054000000001080080000000A6000200802A7
:20148000000000280000000000000000000000000000000000000000000000000000000024
:2014A000000021000000040000010000000000400086048000400000000028420080C4428C
:2014C00080300830000000020000024C40000000000000000000000000000000D5001D00A2
:2014E000AA00000000001D000700AA0052002C000000FE006E00000000000000000010007A
:201500002200000000000C0000000000000000000000000000000000000000002000E00C91
:20152000800900042088400000088500800002140888400010000020000C0400040085007A
:201540002041000840440008020000000000A900000001080060000600810020100000408B
:201560001004001040000000400000408000000000808000000000000000000208002000DD
:201580000120008000000000000000000000000000000000000000000000000000000000AA
:2015A00000000000000004000000000000E900460400601020000C521200010004000B10D4
:2015C0005018A0204801000000000020A0000080000008000000000000000000FE00FF0055
:2015E000FF00000000001F00CF00BF006A00100000008000B0000000000000000000000095
:2016000000000000300008000800000000000000000000000000000000000000000000206A
:2016200000200002002000800040402000010000000328800020604000C08808000000008C
:201640004048000800000000000000040000000000010008000000000000000000080000E5
:201660000818000000020200000002000000020400000000000000004002000400000000F8
:201680000800000000000000000000000000008000010000000000000000000000000000C1
:2016A0000000000000400000000000000000000000042400000000000000004040008000C2
:2016C00080000800000000000008000000000100100000000000000000000000C400BA00EB
:2016E000F800000000002000C0000000420018000000D000200000000000000000000000C8
:201700000000200000000C00000008000000000000000000000000000000000060200020F5
:201720000008400504084087200010024040A0100000A12040000080000011120005410439
:201740000000112250600000000890120108600000020004000A00900032000000000000C1
:2017600000134004080000208880000000000000000000100800A200000020000601000001
:201780000002010000000000060400000000000020002001810002800000000000400000B8
:2017A00004800100001000018040000000210041084400000040045404000100000208007E
:2017C00042002080000000000000002000010000080000000000000000000000F700EF0018
:2017E000FF00000000007F00CF00AF00E000300000002F000D0000000000000000000000A1
:201800001000400000000200800000000000000000000000000000000000000000080000EE
:20182000084000000000000020004008880400000003001490100200020000008088800425
:20184000000000200400000020014002008810000040001420000004008000000000000071
:20186000000000000000000000000000000000000000000000000000000004000000000064
:20188000100000000000000000000000000000000000000000000000000000000010000028
:2018A000048000000000000050000000080200000000000000400014100000600840000638
:2018C00001000800000000008600010010000000000000000000000000000000A400500074
:2018E0007E0000000000D4007E00160000000000000040004000000000000000000008007A
:201900000600000000000000000000000000000000000000000000000000000000000000C1
:201920000800210000000000002200000000000001040000000000000022000000110841DB
:20194000000080550040800003042080000008000400A2000042040080128800000000003D
:2019600000000000000000000000000000000000000000000800000000000020000004003B
:20198000000000040000000000000000000000000000000000000000000000000000000043
:2019A000000000040000000000000000001000000000000000000800000000010001020007
:2019C00000000000001000000000000800000000000008000000000000000000A0005000F7
:2019E000A00000000000F000F200FB00000000000000220022000000000000000000000026
:201A0000000000001000000004000000000000000000000000000000000000000208001296
:201A200000020204080008C000000048402000004012201108020802006600402000510078
:201A4000005040140800000400100042000208000000002188002010002000080000000079
:201A6000000804000000000080000400000000000000AA01000AA00002004810800404801F
:201A80000400080000000000000000000000000000000000000000000000000000000040FA
:201AA0008800000000000000000000008002400000000800000000001000A44000080404D0
:201AC00000204001000000008000000000000000000001000000000000000000DD005E00E9
:201AE0007A0000000000B000A3006E00600020000000FF00610000000000000000000200C9
:201B00000000000000000000000002000000000000000000000000000000000000000000C3
:201B200000000A0100000000000040200000000000100014000000000112400800000000BB
:201B400000000014000000000000020100000000000000140000000000004802010000000F
:201B6000000300100000000000000402100002010100003000000000000000000000000008
:201B8000000000000000000000000000000000000000000000000000000000001000000035
:201BA000010000000000040000000020000000000000000000000000000000000000000000
:201BC00000000000000000000000000000000000000000000000000000000000C000300015
:201BE00060000000000090006000D000A8002000000000000000000000000000800040003D
:201C0000000000000000000000000000000000000000000000000000000000000000004084
:201C200004008000000092000020800240000000000040140000960400084A000201101049
:201C40008000801400000000000080000000900010004000040200100000200000000000DA
:201C60000008040000000000000004000000000000000000A002040000000000000000406E
:201C8000000000000000000000000000000000000000400000000000000000000400000000
:201CA000400200400100000020000000000000000000000000000000000000000000000081
:201CC000000000000000000000000000000000000000000000000000000000003800DD00EF
:201CE00078000000000010003C0027006000200000000F0001000000000000000000040065
:201D00000000080000000000000000000000000000000000000000000000000000000000BB
:201D2000000000000000000000000000000000000000000000000000000000000000008023
:201D40008000000400400000000080000000004400000021800000000000800000000000DA
:201D6000000000000000000000000000000000000000000000000000000000000000000063
:201D800000000000000000000000000000000000000000C000000000000000000000000083
:201DA0000000000000000021000000000000000000000000000000000040000000000000C2
:201DC0000000000000200008000000000800101000000000000000000000000000000000B3
:201DE00000000000E0003000F00030000000000000000000000000000000000000000000B3
:201E0000000000002000000000008000000000000000000000000000000000000000000022
:201E2000000000000000002400202000000000000000000000000000000000000000080036
:201E400000000000000000000000000000000800000000000000000000000000000000007A
:201E600000000000000000000000000008000000400000000000000010000000000000000A
:201E8000000000000000000000000000000000000000000000000000000000000000000042
:201EA00000000000000000041000000000000000000000000000000000400000400000008E
:201EC000000000080000401000002008000000000000000000000000000000000000F00092
:201EE0000000000040000000400000000000000060002000000000000000000000000000E2
:201F00000000000000001000000000000000000000000000000000000000000000000000B1
:201F2000000000000000000000000020000000000000000000000000000000000000000081
:201F4000000000000000000000000000000040000000000800002000000000000000000019
:201F6000000000000000000000000000000000080000000000000000000000000000000059
:201F8000000000000000000000000000000000000000000000000000000000000000000041
:201FA0000000000040000000000000000000000000000000000000000040000000000000A1
:201FC000000000000000400000000010000000000000000000000000000000000000200091
:201FE000000000000000000090001000000000002000000000000000000000000000000021
:20200000000000000000300000000000000000000000000000000000000000000000000090
:202020000000000000000000000000000000000000000000000000000000000000000000A0
:20204000000000000000000000000000000000000000000000000010000040000000000030
:20206000000000000000000000000000000000000000000000000000000000000000000060
:20208000000000000000000000000000000000000000000000000000000000000000000040
:2020A0000000000000000000000000000000000000000000000000000040000000000000E0
:2020C000000000000000000000000000000000000000000000000000000000000000000000
:2020E0000000000000000000000030000000000000000000000000000000000000000000B0
:202100000000000000000000000000000000000000000000000000000000000000000000BF
:2021200000000000000000000000000000000000000000000000000000000000000000009F
:2021400000000000000000000000000000000000000000100000004000000000000000002F
:2021600000000000000000000000000000000000000000000000000000000000000000005F
:2021800000000000000000000000000000000000000000000000000000000000000000102F
:2021A00000000040000000000000000000000000000000000000000000400000000000009F
:2021C0000000000000000000000000000000000000000000000000000000000000000000FF
:2021E00000001000000000002000100000000000000000000000000000000000000020007F
:2022000000004000000000000000000000000000000000000000000000000000000000007E
:2022200000000000000000000000000000000000000000000000000000000000000000009E
:2022400000000000000000000000000000400000000000000000002000000000000000001E
:2022600000000000000000000000000000000000000000000000000000000000000000005E
:2022800000000000000000000000000000000000000000000000000000000000000000003E
:2022A00000000010000000000000000000000000000000000000000000000000000000000E
:2022C0000000000000000000000000000000000000000000000000000000000000000000FE
:2022E0000000000000000000100010000000000000000000000000000000000000000000BE
:20230000000040000000000000000000000000000000000000000000000000001F0110004D
:202320000000000000000F011B0100001F0110000000000016000B011A00180100000000EC
:2023400000000000C00000001000201090001000000000000000030003000000F0070700D9
:2023600007000800000C0C000000000000100000800000000201000000000000050100009D
:202380000000000000000000400000001A00180100000000000000000000000000000000CA
:00000001FF
