:200000000000000000000200008000000000000000360000023003308CC3AF2A000000019A
:20002000000000000000000000000802000800000000000800040000000004020000020496
:2000400000000000000200000001010008010108020204040000000000000054000000002A
:20006000000000000000000000000000000000000000000004040004010000000000000073
:2000800000000000000000000000000000000000000000000000000000000000020000104E
:2000A0000008000100000100000000000000000F0000000000670C000100000000AB000404
:2000C00000CC000208CC040100000200041801E0080F0200000800000000510035020000D1
:2000E0000000000000FFFFFF00A00001180000000F0000000404040410110000400080004A
:20010000404080004000800040208000000000000000000000000000000000000BFE040131
:20012000000E0FF00CA3025C0800010100960068177F00000CC5013A0000000030000000CB
:2001400000000000300040000000000040000F00200010FFA000000000004040310200005E
:20016000004CE2031FFFFFFF00AF0701180000000F0004000404040401110000400080006E
:2001800040408000400080004020800000000000000000000000000000000000C01F0700D9
:2001A00001400014FF0000010140000B0890070B100307203A0304000501780001480002B0
:2001C000034F00000342000922010500000080E07F1F0040088A0000000010453002000000
:2001E0000000000000FFFFFF00A00004180000000000080004040404339000004000C0006B
:200200004040C000C000C000C000C00000000000000000000000000000000000FD0002009F
:20022000733100C2CFC0303400F700003000C900007700009E0060070000000000000008F1
:2002400094A1605200000F00005400A00000000F0000FFF000000000000040003002000044
:2002600000D020153AFFFFFF00AF0F04180000002700000004040404100000004000C00021
:200280004040C000C000C000C000C00000000000000000000000000000000000000000001E
:2002A00000000100000000000000000000000000000000000000000002000001000000003A
:2002C000000000000000000000000000010002000001000000000000000004000000000016
:2002E0000000000000000000000000000000000000000000040400040200000000000000F0
:200300000000000000000000000000000000000000000000000000000000000002000008D3
:20032000065700A83F0200E02C9810600101000001001EFF000040041A0124002440001745
:20034000183706C824E81800340708001F00000060FF0000028000000000001062000000A7
:2003600005000B0D14FF7FFF42A070000C000000000000000404040003030000000940090D
:2003800030090000000000000000000000000000000000000000000000000000DC0802003E
:2003A0001000AC070C01710240101020001000200008030014010006000400010904F00022
:2003C00000400000004000000040000000081F38E0400007000A20800000000526030000FF
:2003E00000EB0C0007FFFFFF0000F0440C000000180004000404040444440000000000000E
:200400000000C0000000400200000000000000000000000000000000000000004000085E34
:20042000000020000400080050000200500001000F8000004073140C002900103F030014FC
:200440008000000040731804000040003F100060C00F00802208002000001045420000002E
:20046000002050000AFFFFFF42A07000081000000000000004040400430300000048404879
:200480008048804800000000000000000000000000000000000000000000000001000A00C1
:2004A000000000010000000400000002010006000000000001000200020001000000000820
:2004C000100000000000000000000000040410010802030800008000000004000300000057
:2004E0000001050005FF07FF4020F0050800000000000000040404002204000040A8402015
:200500000000000000000000000000000000000000000000000000000000000004000000D7
:20052000CC00130102000000A900540000000404000801000000B500FF000000A5004A0028
:200540004D009202000002001A006000FF08000200040001000080000000010000000000AF
:200560000000000000000000000000000000000001000400040400043440000000000000F6
:2005800000000000000000000000000000000000000000000000000000000000001000004B
:2005A00000010002000008000001100A010002000002000100010006000000000100060001
:2005C000000000000000000000000000101008080303040400000020000000013502000085
:2005E0000000000000FFFFFF00A000011800000000000800040404042392000040008000B8
:2006000040408000400080004020800000000000000000000000000000000000000000003A
:20062000300000000C0402000C00010400000000000200000B01040000000F0830004002CC
:2006400008000102170000000008000040010F0820021004A0000000000040542503000086
:20066000003C240E1FFFFFFF00AF0701180000000F000000040404044222000040008000DE
:200680004040800040008000402080000000000000000000000000000000000000000000BA
:2006A00000000007CF7730009EA160520000000073C00034FDF70200943160C20000000880
:2006C0003000C90000540FA000000000FF00000F00F000000000000000000100000000001F
:2006E0000000000000000000000000000000000000000000040400002000000000000000D2
:200700000000000000000000000000000000000000000000000000000000000002000100D6
:200720000000000001000200010006000000000001000A0000000000000010000000000094
:20074000000000000000000000001000030004000800100000000200000040000000000028
:20076000000000000000000000000000000000000000000004000000010000000000000074
:200780000000000000000000000000000000000000000000000000000000000000008B00CE
:2007A000000740200A0001F000F00B0000010B0E01F00A0000061081000030F000031044B9
:2007C000010724100101060800021085800F0700080070F00000880200001040000000005E
:2007E0000000000000000000000000000000000000000000040400003300000000000000BE
:200800000000000000000000000000000000000000000000000000000000000000000000D8
:200820000000000200000008000000010000000400000000000000000000000000000000A9
:20084000000000000000000000000000000800040002000100000000000000000000000089
:200860000000000000000000000000000000000000000800000400043090000000000000A8
:20088000000000000000000000000000000000000000000000000000000000000000000058
:2008A000000000000000000000000500000000000000000000000000000000000000000033
:2008C0000000000000000A00000003000400020001000800000000000000000000000000FC
:2008E0000000000000000000000000000000000000000000040000000000000000000000F4
:20090000000000000000000000000000000000000000000000000000000000002000C010E7
:20092000612502000000104005046A210001000E4071200201806400068060006005022017
:200940002F25800001F1020808046501E00F008000401F300008020200000000000000004B
:200960000000000000000000000000000000000020000400040400043330000000000000E4
:20098000000000000000000000000000000000000000000000000000000000000010000047
:2009A0000008000007E7001802FF0500003C08C2000000E3015C00A10700000000400000F5
:2009C000000001040218050000040000043802980858011F020000A80000040035040100B1
:2009E000020E00C021FFFFFF62A0F0410C000000000002110404040444440000000000001F
:200A0000000040020010301000101012000000000000000000000000000000000E00F00014
:200A2000FE00010000CC0001C5CC3A0200000000A3675C000000010F00000000000800019E
:200A4000960068107F00000000AB0004000FFFE00018000000080000000004000000000048
:200A6000000000000000000000000000000000000F00040004040004202000000000000017
:200A8000000000000000000000000000000000000000000000000000000000002A005400D8
:200AA0000000000100000002800256004600A900000000004000130000000100FF00000019
:200AC0000E00300C0008000433000C00FF0200010008000400000000000000510000000022
:200AE00000000000000000000000000000000000000008000404000413900000000000003F
:200B00000000000000000000000000000000000000000000000000000000000000001000C5
:200B20000000000001000A000200010000C200080100060C005010A30100020000000000C4
:200B400000F300040031000800A00053030010F0040F08000000022000000400000000002E
:200B6000000000000000000000000000000000000000080004040004419000000000000090
:200B8000000000000000000000000000000000000000000000000000000000000000000055
:200BA000000000000000000000000000000000000000000000000000000000000000000035
:200BC00000000004000F0000000000000000000000000000000800000000000000000000FA
:200BE00000000000000000000000000000006F0F002F00003800000F006F00000000000092
:200C00000000000000000000000000000000000000000000740F00000000000000200080B1
:200C20000080004000000000000040000000000000000000000000000000000000000000B4
:200C4000000000000000000000000000000000000000000000000000000000000000000094
:200C6000000000000000000000000000000000000000000000000000000000000000040070
:200C80000000000000000000000000000000000000000000000000000000000000000480D0
:200CA00000A000000000000000004040000000000000000000000000000000000000000014
:200CC000000000000000000000000000000000000000000000000000000000000F00040001
:200CE0000000000000000000000000000000000000000000020000000000000000000800EA
:200D00000000020000000000000000000000000000000000000000000000000000200000B1
:200D20000000800000000000000000000000000000000000000000000000000000008000B3
:200D400000200000000000000000000000000000020000000000000000000000000004006D
:200D6000000000000000000000000000000000000000000000000000000000000000000073
:200D80000000000000000000020000000000000000000000000000000000000000008000D1
:200DA000000200000000000000000000000000000000000000000000000000000000000031
:200DC000000000000000000000000000000000000000000000000000000000000000000013
:200DE0000000000000000000000000000000000002200000000000000000000000000000D1
:200E00000000000000000000000000000000000000000000000000000000000000000000D2
:200E20000000000000000000000200000000000000000000000000000000000000000000B0
:200E4000000000000000000000000000000000000000000000000000000000000C00000086
:200E600000000000000000000000000000000000020004000000000000000000000002006A
:200E8000000000000000000000000000000000000000000000000000000000008000400092
:200EA00040110000204040000000011800022100000000008000400040100106000250108C
:200EC00000200018040000102000000901020000000000190440100000000000000000002D
:200EE0000000000000000000000000000000000000000000022000000080000084000000CC
:200F000000000002000000000000000000000000000000000000000000000000004020026D
:200F20000A0000002000000040A0000000C000000000A00A04015101A90000006041001C80
:200F400000200000000000000000004040000400002000000000000000000000D900EB0009
:200F60000D00000000007600E0000E0000000000000015001500000000000000810008004D
:200F800000001600100000002000000000000000000000000000000000000000480000843F
:200FA0000000000040044004040010000502100000000000040050400000000082008100E7
:200FC000008401044080105000000000208801A00000010060004004400800100000000022
:200FE0000000000000000000000000000000000000000000000000000040000800000000A9
:20100000004400000000000000000000000000000000000000000000000000000241001039
:201020000100000840000000204000002000001404800000018050004044000004080010DE
:20104000420081600000000040000400010800000000601000000000000000000F000F0092
:201060000F00000000000F008F007E000000000000005000500000000000000000000C0099
:20108000090004000000000000000200000000000000000000000000000000004804008075
:2010A0000000000600001024422001000000201000000018000800000001222040080414A0
:2010C000001000560208008082002021000820000000001A4000042400208A000000000009
:2010E00040208044000000000080000800000000000000010200A800000020000000004039
:2011000000000000000000002000000B0000000000002A000000000000000000000000007A
:2011200000000000020400008020000000C011004000041804805108A920044004412090FD
:201140002000010B100000010000004010004000020000000000000000000000CD00D6001D
:20116000660000000000FB00E600FC00F000100000002F00010000000000000000000000FC
:201180000000000030000000800000000000000000000000000000000000000020820020DD
:2011A0000000020080000014000000004900100000000840008240000000011500186101A6
:2011C000000000000080105000000000200089000000000000A000050000000000000000E1
:2011E000000000000000000000000000000000000000000000008610000000000480004095
:201200000000000000000000000000000000000000000000000000000000000000000000CE
:20122000000000400000001400000000200000140080010280005A4001C400003C800810F0
:20124000020821402400000000000000008060008000001000000000000000008F000700F9
:20126000CF00000000000F000F000F000000000000000F000D000000000000000000A000B6
:201280000000000000000D00000000000000000000000000000000000000000000084105F3
:2012A00082100210220000200000200800860220000200000400400000142000006400405A
:2012C00022028008401020402000020A002480100A1880000002000000208801040200007F
:2012E000003020000000000108010008000000100000004000000404000002000000000032
:201300000040008800000000000000000000000000000000000000000000000000004200C3
:20132000000000000081880900000000804611004009445004401020F32044410C0120901E
:2013400000000001000000000000020602000000000400200000000000000000FF006E00F1
:201360001F0000000000F500FE00F1006500200000008000B00000000000000000000000B5
:2013800020000000000000001000C00000000000000000000000000000000000002021809C
:2013A000000400008000640000000001005100040000000000004010000080040800000112
:2013C0000000000400209150000000000009A0000000004000D12004000000000400000026
:2013E000000000000000090000000000080004800000000000000000000000000000000058
:201400000000000000000000000000000000000000000040000000000000000010008400F8
:20142000000000000000000400000000000124140080410A00214A0081402004108088003C
:201440000A0020500000210010210000000101000049000200000000000000002F008F00B5
:201460000F00000000000F001F000F0004000C00000000000000000000000000010004000B
:20148000000000000000280000000000000000000000000000000000000000008042000062
:2014A0000220002100008A000200A600200000002200401000060A800000010280104800BA
:2014C0000205111080000000000800000804000000010004008014000000080000040000AB
:2014E000000000002000000000000000400000000000000000000000001100440000000037
:201500000000008000000000100000040000000000890800000000000000000001000000A5
:20152000000000404010000000000100008610006021421004401000118004400400621012
:2015400020000801000000000000000000000000000040000000000000000000F800FB002F
:20156000F400000000004100C0004E00020000000000F000800000000000000004001000A2
:201580000000080000000000000000000000000000000000000000000000000008201042C9
:2015A0003204000080080044222000000800A100000C0010000024000000008000800904F1
:2015C0000240001000002052220000800900A0000004001000821004108400000400002496
:2015E0000110004400000000000000C10000000000100A200000080004402001000000101E
:20160000000000080000000000000000000000000000000000000000000000000000C00002
:2016200000000400000000000020000020480000020001020004400000400A100420100047
:20164000020000000000000000108000000000000000000000000000000000007F005F001A
:201660006F0000000000DF006F007F00660000000000F200220000000000000004000800A8
:2016800000000C0000000000000000000000000000000000000000000000000050001010CE
:2016A000208000000020020000004000800020100000800010001052000084480401440869
:2016C000004422040001040200040400A000080010000004802000000089000004040000A4
:2016E0000400002880000044000000C04048100000000000010088100040000000080004BD
:20170000000080000000000000000000000100000000000000000000000000000000000048
:201720000000000800000040004000000008000050000210004000200000004004200000F3
:2017400000002001000000000000000200000000000002000000000000000000C70013008A
:201760001E00000000000B006E00DC006600180000001F0016000000000000000000000043
:2017800000008000400000000000000000000000000000000000000000000000040100097B
:2017A0000100080000280000000005000800800000800010200106880010620000000001B9
:2017C000802800600000000000030028022C002100000021A609000004000001000000941E
:2017E00000000018800000080000010008408810000000000016400000108A0000000080F8
:20180000000000280000000000000000000000000000000000000000000000000000004060
:2018200004000000000040000000000001480000008000020000000C0041024000004400C6
:20184000800008000000000000040000000000004000000000000000000000005F00C60097
:20186000CA0000000000E000A700CF006E0010000000FF006100000000000000000000006A
:201880000000020000000800000000000000000000000000000000000000000050000800E6
:2018A000001102004020021000001002000030200000004000020000005110020824002050
:2018C000000000000002100000000000402008000000000040080010000000000000000036
:2018E0000000000000000000000000000000000000000000000000000000000000000000E8
:201900000000000000000000000000000000000000000000000000000000000000000000C7
:201920000000000000000000000000000000000000000000000000000000000000000000A7
:2019400000000000000000000000000000000000000000000000000000000000D300A7000D
:2019600086000000000005000E000E000000000000000000000000000000000000000000C0
:20198000000000000000000000000000000000000000000000000000000000000040020005
:2019A000004000000000000000400000000000000001004000000000411000040000000011
:2019C0000000460C0000000080010005000000000011084000000000000082000000000054
:2019E0000000000000000000000000000000000000000000000000000000000000000000E7
:201A0000000000000000000000000000000000000000800000000000000000000000000046
:201A20000000000000000000000000000000000000000000000000000000000000000000A6
:201A4000000000000000000000000000000000000000000000000000000000008000800086
:201A6000900000000000B000F00090000000000000000000000000000000000000000000A6
:201A8000000000000000000000000000000000000000000000000000000000000000000046
:201AA000000000000000000000000000000000000000000000000000000000000000002006
:201AC00000400400000000080080000000000048008004000000100000000000000000005E
:201AE0000000000000000000000000000000000000000000000000000000000000000000E6
:201B0000000000000000000000000000000000000000006000000000000000000000000065
:201B2000004010000000000000000000000000000000000000000000000000000000000055
:201B400000000000000000000200000800000000000000000000000000000000000000007B
:201B600000000000E0003000F0001000000000000000000000000000000000000000000055
:201B8000000000000000000000004000000000000000000000000000000000000000000005
:201BA000000000000000000000000000000000000000000000000000000000000000010024
:201BC0000000000000000000000000000000000802000000000000200000000000000000DB
:201BE0000000000000000000000000000000000000000000000000000800000000000000DD
:201C0000000000400000000000000000000000000000000000000000000000000000000084
:201C200000000010080000400000000000000000000002000000000000000000000000004A
:201C40000000000000000000008020000000000000000000000000000000000000000000E4
:201C60000000000040000000C0001000000000000000800080000000000000000000000054
:201C80000000400000001000000000000000000000000000000000000000000000000000F4
:201CA000000000000000000004000000000000000000000000000000000000000000000020
:201CC000000000000000000000000000000000000480000000002000000000000000000060
:201CE0000000000000000000000000000000000000000000000000000000000000000000E4
:201D00000000000000000000000000000000000000000000000000000000000000000000C3
:201D20000000000000000000000000000000000000000200000000000000000000000000A1
:201D4000000000000000000000000000000000020000000000000000000000000000200061
:201D60000000000000000000A00010000000000000000000000000000000000000000000B3
:201D8000000000000000000000000000000000000000000000000000000000000000000043
:201DA000000000000000000000000000000000000000000000000000000000000000000023
:201DC000000000000000000000000000000000000000000000000080000000000000000083
:201DE0000000000000000000000000000000000000000000000000000000000000000000E3
:201E00000000000000000000000000000000000000000000000000000000000000000000C2
:201E200000000040000000000000000000000000000002000000000000000002000000005E
:201E4000000000000000000000000000000000000000000000000000000000000000000082
:201E6000000000000000000000001000000000000000000000000000000000000000100042
:201E8000000000000000000000000000000000000000000000000000000000000000000042
:201EA000000000000000000000000000000000000000000000000000000000000000000022
:201EC0000000000000000000000000000000000000000810000000000000000000000000EA
:201EE0000000000000000000000000000000000000000000000000020000000000000000E0
:201F0000000000008000020000000000000000000000000000000000000000000000081027
:201F20000000000000000000000000000000000000000000000000000000000000000000A1
:201F4000800000000000000000000000000000000000000000000000000000000000000001
:201F60000000100000000000A0000000000000000000400000000000000000000000200051
:201F8000000000000000000000000000000000000000000000000000000000000000000041
:201FA000000000000000000000000000000000000000000000000000000000000000000021
:201FC000000000000000000000000000800000000000000000000000000000000000000081
:201FE0000000000000000000000000000000000000000000000000000000000000000000E1
:202000000000000000000000000000000000000000000000000000000000000000000000C0
:202020000000000000000000000000000000000000000000000000000000000000000000A0
:20204000000000000000000000000000000000000000000000000000000000000000000080
:20206000000000000000000010000000000000000000000000000000000000000000000050
:20208000000000000000000000000000000000000000000000000000000000001F01100010
:2020A00000000000000009011E0100001F0110000000000003000F011C001E010000000079
:2020C00000000000C000000010002F1010001000000000000000030003000000003070002B
:2020E00030008F00000C0C00000000000010000000000000030200000000000030100000B4
:2021000040000000000000004000000000000000000000000000000000000000000000003F
:00000001FF
