:2000000000000000000002000080000000000000001B0000C20000FC80C3BBAB0001000AD1
:200020000000001000000040000000300000000B00010006000A0001000001100000008B87
:2000400000010024000000100000000B0080010700080070000000880000001000000000C8
:20006000000000000000000000000000000000000000000004040000310000000000000047
:2000800000000000000000000000000000000000000000000000000000000000000000015F
:2000A00031000800F300040000000000C200080200000C085000A304000000000000000039
:2000C00000000000A00053000000000000010F02F008000400000800000000000000000017
:2000E0000000000000000000000000000000000000000000040400003400000000000000C4
:20010000000000000000000000000000000000000000000000000000000000005C07A100DB
:20012000400000010401000010000000000000003C00C2080000E30000000400E70018007D
:200140000807000018020005FF02000598081F023804580100208A0000000004420506001A
:2001600003E00C0006FFFFFF62A0F0410C00000000000212040404044444000000000000A2
:20018000000040020010301000101012000000000000000000000000000000000004000097
:2001A000004000000040000000040001000800000008000000010006004000000001000260
:2001C0000010002000100020000000070008003800400007000A00800000000500000000A2
:2001E0000000000000000000000000000000000000000000000400004000000000000000BB
:200200000000000000000000000000000000000000000000000000000000000000000000DE
:2002200001400A1000000003020001000000000001140600000C107101DC0202001010AC08
:200240000000000000000000000900F00300041F10E0080000000220000010000000000055
:20026000000000000000000000000000000000000000000004040000410000000000000035
:2002800000000000000000000000000000000000000000000000000000000000000200015B
:2002A000000000100000010000000010000104020001000A000008000000000000010206FA
:2002C0000000000000000000000000000103041002040808000000020000000413060000D1
:2002E0000000000000FFFFFF00A0000118000000180004000404040411410000400080000A
:20030000404080004000800040208000000000000000000000000000000000000100000F2D
:2003200004000000000002000030080002170000000C000100000000000C000200300440D7
:20034000000B01040800000000080201042001400810020F00220000000051101306000050
:200360000040C23E3EFFFFFF00AF0701180000000F00000004040404101100004000800033
:200380004040800040008000402080000000000000000000000000000000000067FE000157
:2003A000000010000000000000000F0000960068CC00020000000000ABA3045C087F01001C
:2003C00000C5003A00000001CC0E01F0E0000F0018FF00000200000000000010000000003A
:2003E0000000000000000000000000000000000000000000040400000100000000000000F4
:200400000000000000000000000000000000000000000000000000000000000003021401C2
:20042000001000000000000000005E008001000273000C000001000A00000000000100063A
:2004400073000400000000002900100010030F0460108008200008020000511062030000DE
:2004600000B00C0E16FFFFFF0000F0440C00000001000400040404042444000000000000E2
:200480000000C000000040020000000000000000000000000000000000000000000000005A
:2004A000000000000000000000000000000000000200000001000000000000000000000039
:2004C0000000000000000000000000000100000000000200000000000000400000000000D9
:2004E0000000000000000000000000000000000000000000040000000400000000000000F4
:2005000000000000000000000000000000000000000000000000000000000000FF000004D8
:200520000300000222000500010000000500780010000700010800000100000008000700E1
:200540003A00040103000000C00007000002000480017F0820000000000040000000000024
:2005600000000000000000000000000000000000000000000404000433000000000000003C
:2005800000000000000000000000000000000000000000000000000000000000E8FF000074
:2005A000004604A901000000400017003740C813072A00545700A800000E083001800056FD
:2005C0000233E00C980060010000FF00000000FF0000FF00200000000000400002000000A2
:2005E0000051000003FF07FF4020F0050800000000000000040404003004000040A84020BD
:200600000000000000000000000000000000000000000000000000000000000001FF0000DA
:2006200006A90054240000012C4D10921AA5244A3402080018000604000040023F0000B5B4
:20064000241A186001CC1E13020400001F000000600000FF020000200000004036000000CA
:200660000000005230FFFFFF42A0700008100000000000000404040043030000004840486F
:2006800080488048000000000000000000000000000000000000000000000000008000004A
:2006A00000000020005008010040001400000040004000080140061801040208000F100058
:2006C0000000000000500002003F0000083F04C010000300000A000000000004000000005D
:2006E000000000000000000000000000000000000000080004040004339000000000000023
:20070000000000000000000000000000000000000000000000000000000000000101000EC9
:2007200040070B10420009F090030B44000001F04F02008503060081480102081FF0000087
:2007400003F020000107002040001400400F1F00E00000F0A2000002000051406200000035
:20076000030D0B0D15FF7FFF42A070000C0000000000080004040404339300000009400931
:2007800030090000000000000000000000000000000000000000000000000000002F408031
:2007A000250100027140022001600E02800000108005006A00001000052020C0F1080865D3
:2007C00004060160046121022501006480004000301F0FE00200808000000000000000009C
:2007E000000000000000000000000000000000002000040004040004333000000000000066
:20080000000000000000000000000000000000000000000000000000000000007300000065
:200820009E0060000000000030C0C93400F7000000000F0700000000FD3102C29477600063
:2008400000A1005200000008CF5430A000F0000FFF0000000000000000001000000000009C
:200860000000000000000000000000000000000000000800040400041090000000000000C4
:2008800000000000000000000000000000000000000000000000000000000000009600685A
:2008A00067A3005C08FE010100C5003ACC000200AB000400CC0001000000000100000F0071
:2008C000000E00F0007F1000000000000F00E0FF0000180008000000000000040000000079
:2008E000000000000000000000000000000000000000080004040004029000000000000052
:200900000000000000000000000000000000000000000000000000000000000000000200D5
:2009200000000000000000000000000301000000020000000000000A00000C00000000009B
:200940000000010008000405000000000408010208010204000000000000510060040000B2
:200960000000000000FFFFFF00A00004180000000F00040004040404001000004000C0008B
:200980004040C000C000C000C000C000000000000000000000000000000000000000000017
:2009A000000002000000000000000000000001000000000000000000000000000000000034
:2009C0000000000000000000000000010200000001010000000000000000000020010000F1
:2009E00000D052011EFFFFFF00AF0F04180000002700000004040404200000004000C00088
:200A00004040C000C000C000C000C00000000000000000000000000000000000000000088E
:200A2000000000000000000000080200000000040000040200010000000008010000000098
:200A40000004000000020100000000020401010202080804000000000000005430060000E5
:200A60000000000000FFFFFF00A00004180000000F00000004040404022000004000C0007C
:200A80004040C000C000C000C000C000000000000000000000000000000000000000000016
:200AA000100000000000000A0100060301000A0000000000010002000200010500000000FC
:200AC00000000000000000000000000004011002080403080000800000000400300600002E
:200AE00000D051021EFFFFFF00AF0F04180000002700000004040404020000004000C000A5
:200B00004040C000C000C000C000C000000000000000000000000000000000003002C9009A
:200B200000080F04730000010001000000000000FD0002000000000CCF0030009400600027
:200B400000000002000000009E006000FF02000800010004000000000000014563020000DC
:200B60000000000000FFFFFF00A00001180000000F000400040404040022000040008000BA
:200B8000404080004000800040208000000000000000000000000000000000005430A04051
:200BA000000C0701C0303400000008000000000FF7000000770B0004000C00023108C2015F
:200BC000A117520000000000000000000040F0100F20000F00280000000000042306000038
:200BE000004C203E3BFFFFFF00AF07011800000000000800040404042292000040008000B8
:200C0000404080004000800040208000000000000000000000000000000000000000000034
:200C20000000000000000000000000000000000000000000000000000000000000000000B4
:200C400000000000000000000F000400000000000000000000000000080000000000000079
:200C60000000000000000000000000000000740000386F000F00000000000000000000004A
:200C80000000000000000000000000000000000000000F2F6F2F0F00000000000022000047
:200CA00020000080000000000008000000000000000000000000000000000000000000008C
:200CC000000000000000000000000000000000000000000000000000000000000000000014
:200CE0000000000000000000000000000000000000000000000000000000000000000002F2
:200D00000000000000000000000000000000000000000000000000000000000010200000A3
:200D2000000000000002008000080000000000000000000000000000000000000000000128
:200D4000000000000000000000000000000000000000000000000000000000000F00040080
:200D6000000000000000000000000000000000000000020000000000000000000000010070
:200D800000000C000000000000000000000000000000000000000000000000000000000047
:200DA000000000000000000000000000000000000000000000000000000000000000000033
:200DC000000000000000000000000000000000000010000000000000000000000000000003
:200DE0000000000000000000000000000000000000000000000000000000000000000000F3
:200E00000000000000000000000000000000000000000000000000000000000000000000D2
:200E20000000000000000000000000000000000000000000001000000000000000000001A1
:200E4000000000000000000000000000000000000000000000000000000000000000000092
:200E600000000000000000000400000000000000000000000000000000000000000000006E
:200E8000000000000000000000000000000000000000000000000000000000000000000052
:200EA000000000000000000100000000000000000000000000100000000000000000000021
:200EC000000000000000000000800000000000000000000000000000000000000000000092
:200EE0000000000000000000000000000000000000000000000000000000000001000000F1
:200F00000000000000000000000000000000000000000000000000000000000000000000D1
:200F20000000000000000000000000000000000000000000000000000000000000000000B1
:200F4000000000000080000000000000000000000000000000000000000000000000000011
:200F6000000000000000000000000000000000000000000000000000000000000000000071
:200F8000000000000000000000000000000000000000000000000000000000000000000051
:200FA000000000000000000000000000000000000000000000100000000000000000000021
:200FC0000000000000100000000200000001000002000000000000000000000000000400F8
:200FE0000000000000000800000000000000000000000000000000000000000000000000E9
:2010000000000000040000000200000000000000000000000000000000000000000000804A
:201020000002000000000000000000000000000000000000000000000000000000000000AE
:20104000000000000000000000000000000000000000000000000000000000000000000090
:2010600000000000000000000000000000010000020000000000000000000000000000006D
:20108000000000000000000000000000000000000000000000000000000000000000000050
:2010A0000000008000000000000000000000000000000000000000000000000000000000B0
:2010C000000000000000000000000000000000000000000000000000000000000C00000004
:2010E0000000000000000000000000000000000001000400000000000000000000000000EB
:2011000000000000000000000000000000000000000000000000000000000000042000C0EB
:20112000841000400040100000001400000201000000000980000000240030000001502026
:2011400050688000000000100000049000200202000091012C800002000800221400000011
:20116000000800100000040004020004000000000000081100008520020000000000020087
:2011800040000000000000000000000000000000000000000003000000000000021080007A
:2011A0000000000210200110000401082080000240012004000000104002080000010580F8
:2011C00000000011000000040000010000000000008000000000000000000000FE00650016
:2011E000390000000000C200B400EF006600240000008F0081000000000000002000840013
:201200004000B100000000004000000000000000000000000000000000000000000A000291
:2012200000040800000802000000401840C200000001001000100000024440080009052061
:2012400000000010001A000200000808400801000040000000400000000140180000000030
:20126000000000000000000000000000000000000000000001800000080010008000000253
:201280001400000000000000000000000000000000000000000000000000000000800004B6
:2012A0000000000009000018000050000001000000020800000A08009400002000410002A9
:2012C000010000014404000000000040000000000400000000000000000000006D0075009E
:2012E0005900000000006F001B00F8000000000000006900690000000000000000000C0035
:2013000000000400010000000000020000000000000000000000000000000000088000003E
:201320000000000100008500400000300000000008000000000885800000005900482100E0
:20134000000044580000000002000018000080000802A00120000040400000020000000406
:201360000000000400010800000008001000880000000000000520400001801800040808AE
:201380000000080400000000000000000000004002000000000000000000000000000000FF
:2013A000000001000800004000080100000000000000008000000000000800000401010449
:2013C000000000000100000402000004000040100000000000000000000000008500AB0082
:2013E0004000000000007000F8009C00420024000000FF0064000000000000008000300030
:201400000000100000000000000000000000000000000000000000000000000008000000B4
:20142000000080002020004000022200000000000000102080000410002090800400000090
:201440000A06000000000001000000040000000000002000000000000000004000400400D3
:20146000000040000001000000000020004470040000000000011044280080010010000045
:20148000000000800000000000000000000000400000000002000080000000000040004C7E
:2014A00008030000050000000000080000000001020A0800001A8000960000000041110A73
:2014C000000000000010000040000010000100100000000000000000000000001400B800CF
:2014E0006000000000002800200010008C0020000000FF00840000000000000000000800FD
:20150000000010000800000000000C000000000000000000000000000000000000000000A7
:2015200080004000000000240200102000000000000800488201000002205004000000004C
:20154000001101110000000000000040000000000000001100000000000200040000000011
:20156000001000080000000000004020000000000400400000000000000840120000000055
:2015800000000040000000000000000000000000000000000000000000000000000000000B
:2015A000000000400500000200004000000800240000000000000040000100000000000037
:2015C000002000000001000000000000000400000080000800000000000000009000360098
:2015E000A000000000008000A000C000600020000000F0008000000000000000000010006B
:20160000000000000000080080000000000000000000000000000000000000000802000236
:201620000620020000002001000200000082400000090050002A2000008048080800000022
:2016400000408118002A40000000021200008002000A800000020001000280400000000062
:201660000080000800000000000104000000000000009A00000000000200482000000000D9
:20168000000018000000000000000000000000000000004000000000000000000000802052
:2016A000000000000000000000040000040000100001084000000000D424000800031002B4
:2016C00000800000008000000000802000200000000000000000000000000000FD00150038
:2016E000F90000000000DF00D9009100500020000000F000600000000000000000000000E8
:201700000000020000000C000000000000000000000000000000000000000000410800046E
:20172000810C040A014404001900800A18000102800241140000090000000050530100087B
:2017400000040010000088015800000000001000000040060A00000001080000000000002B
:201760000020000000000000000080040000000000000000000000000000040800000000B9
:2017800000000000100020000000000085000800000000000000000000000000000000008C
:2017A0000000000000008000000000008000000010000980400481448080441008404004A7
:2017C00091000000001000802000401000280100000102440000000000000000FF00FF000A
:2017E000FF0000000000E200D400C3002000000000000000000000000000000000008000D1
:201800000000000010000000A4000800000000000000000000000000000000000008000202
:20182000002000000010220010000040800000000001000000180202040220800020201073
:2018400000010025408000000000008000244000000000050000001800020480000000001B
:201860000080000800000000000004000000000000000000000000000000000200000000DA
:201880000010810000000000000000000000000000000000000000000000000000000000B7
:2018A0000000000000000204000001000000A4000000000000000002C48002008010004065
:2018C00000002000200002001000000050000000000040000000000000000000450057008A
:2018E0001800000000008900CE00D6005000200000008000B0000000000000000000000003
:20190000000040000000010000000600000000000000000000000000000000002000000060
:201920008025000000000204040081088000000000910004022844020401001000000110C4
:2019400000100001000002054480001040020014802402008A0000601201004A0000000058
:201960000408001000000000000000100000000000000A002000000000000000000000040D
:201980000000000000000000000000000000000000000000000000000090040200000000B1
:2019A0000800000001008C40080200008880000004014220400401040C084C110800008493
:2019C00000200000000000084000000000144800004020040000000000000000F200F300FA
:2019E000F80000000000FD00FF00FF00400020000000040004000000000000000000A000EC
:201A00000000880000000000E000000000000000000000000000000000000000000000005E
:201A20000001110400000000002022000000000000410028000000000001250AA060400471
:201A40000010050250A008002000000A004421000400000400940200000321040000000022
:201A6000002930000240000080400600000000000000004000000C000000080000000000B1
:201A80000000000000000000161400000000000000000128000000000000000000000000F3
:201AA0000000000000000130000000000000200028000010002400008400080000080000E5
:201AC00002000020002000000040000000200200040000000000000000000000F000E0008E
:201AE000F000000000007F004F00EF00E000300000004000000000000000000000000000E9
:201B0000000000000000000000000900000000000000000000000000000000000000411467
:201B2000045000400000402900008821A0410400004100140012008C00450A048001400013
:201B40000000800440090108444000108000011400008005842200400001005400240000A2
:201B6000000000002010000400000000084000000000000009020000401006002000001058
:201B80000100208000000000000000000000000000000000000000000000000064004011EF
:201BA000400804400010800040040440000000000000000000000000000000000000000081
:201BC00000000000000000000000000000000000000000000000000000000000FF00FF0007
:201BE000FF0000000000F700DF00FF00060004000000F200B2000000000000000000000063
:201C00000000000000000000000000000000000000000000000000000000000000000000C4
:201C2000280000008000000002080400000003000400000000002000000804000440050072
:201C40000120121200200121000000000040051000001402018008100000000200000000F7
:201C6000000000000000000000000000000000000000000000000000000000000000000064
:201C80000000000000000000000000000000000000000000000000000000000000440400FC
:201CA000000000010000000000000000000000000000000000000000000000000000000023
:201CC000000000000000000000000000000000000000000000000000000000006000710033
:201CE0004000000000000F00EF008F0000000000000000000000000000000000010008000E
:201D000000000D0000000000000000000000000000000000000000000000000000000000B6
:201D200000000000000000000000000000000000000000000000000000000000000008009B
:201D40008000800000008000040000008000000204008000800000000000800000000000F9
:201D6000000000000000000000000000000000000000000000000000000000000000000063
:201D800000000000000000000000000000000000000000000000000000000000000008102B
:201DA000800000020000000000000000000000000000000000000000000000100000000091
:201DC000000000009000000010000802000000000000000000000000000000000000000059
:201DE00000000000E0003000F00030000000000000000000000000000000000000001000A3
:201E000000000000000030000000C0000000000000000000000000000000000000000000D2
:201E2000000000000000000000000000000000000000000000000000000000000000004062
:201E4000000000000000000000000000000000020000080000000040000000000000000038
:201E60000000000000000000000000008000000000080000100000001000000000000000BA
:201E8000000000000000000000000000000000000000000000000000000000000000000042
:201EA00000000000000000000008000000000000000000000000000000000010000000000A
:201EC000000000000000000000000000000000000000000000000000000000000000000002
:201EE0000000000040000000C000100000000000E0002000000000000000000000000000D2
:201F00000000000000000000000000000000000000000000000000000000000000000000C1
:201F200000000000000000000400000000000000000000000000000000000000000000009D
:201F400000000000000000000000000000000000040000000000004000000000000000003D
:201F6000000000000000000000000000000000000000000000000000000000000000000061
:201F8000000000000000000000000000000000000000000000000000000000000000000041
:201FA0000000004000000000000000000000000000000000000000000000001000000000D1
:201FC0000000000000000000000040000000000000000000000000000000000000002000A1
:201FE000000000000000000080001000000000000000000000000000000000000000000051
:20200000000040000000100000000000000000000000000000000000000000000000000070
:202020000000000000000000000000000000000000000000000000000000000000000000A0
:202040000000000000000000000000000000000000010000000040000000400000000000FF
:20206000000000000000000000000000000000000000000000000000000000000000000060
:20208000000000000000000000000000000000000000000000000000000000000000000040
:2020A0000000000000000000000140000000000000000000000000000000001000000000CF
:2020C000000000000000008000000000000000000000000000000000000000000000000080
:2020E000000000000000000080003000000000000000000000000000000000000000000030
:2021000000000000000000000000200000000000000000000000000000000000000000009F
:2021200000000000000000000000000000000000000000000000000000000000000000009F
:2021400000000000000000000000000000000000000000000000000000000000000000007F
:202160000000000000000000000000000000008000000000000000000000000000000000DF
:2021800000000000000000000000000000000000000000000000000000000000000000003F
:2021A00000000000000000000000000000000000000000000000000000000010000000000F
:2021C0000000000000000000000000000000000000000000000000000000000000000000FF
:2021E0000000100000000000000000000000000020000000000000000000000000000000AF
:202200000000000000000000000000000000000000000000000000000000000000000000BE
:2022200000000000000000000000000000000000000000000000000000000000000000009E
:20224000000000000000000000000000000000100000000800000000000000000000000066
:2022600000000000000000000000000000000000000000000000000000000000000000005E
:2022800000000000000000000000000000000000000000000000000000000000000000003E
:2022A000000000080000000000000000000000000000000000000000000000000000000016
:2022C0000000000000000000000000000000000000000000000000000000000000000000FE
:2022E00000000000000000009000000000000000000000000000000000000000000010003E
:202300000000000000000000000000000000000000000000000000000000000007011000A5
:202320000000000000000701050100001F011000000000001A0013001D00180100000000FC
:20234000000010000000000000000000C000000010002F101000100000000000000003003B
:2023600003000000000F8F000F001000000C0C000000000001030000000000000905000073
:202380008000000000000000400000000B0019010000000000000000000000000000000058
:00000001FF
