:2000000000000000000002000080000000000000001B00003F00000C83CF22AA005C00A1DD
:2000200000E701180004000002FF05000700000000180000070000E3001000000108000094
:2000400002000504003C08C20040000001980458081F02380800002A000040000000000087
:200060000000000000000000000000000000000000000213040400044440000000000000DB
:2000800000000000000000000000000000000000000000000000000000000000011F0E0032
:2000A00000011000710302000540200B044F21000003402004000101F140081425010000F9
:2000C00080420009804800022590000B801F400030E00F4002A8800000000054000000000F
:2000E00000000000000000000000000000000000200004000404000433300000000000006D
:20010000000000000000000000000000000000000000000000000000000000001A3F600026
:20012000A5004A20020000000040B518CC5013010000044004400014FF5000020004020876
:200140004D409208000F0100A98054000000FF00003F00C000A08000000004404100000048
:200160000000002530FFFFFF42A070000810000000000000040404003403000000484048B0
:200180008048804800000000000000000000000000000000000000000000000000000000CF
:2001A0000000000000A00853000000000000000000000000015002A300C200080000100C68
:2001C000000000000131060800F300040300040010F0080F0000008000000000320405000F
:2001E00001C00E0006FFFFFF62A0F0410C00000000000800040404044394000000000000FF
:2002000000004002001030100010101200000000000000000000000000000000010006040F
:2002200000000002000000000000100001000A000008000001000201000000000000100085
:200240000200010000000000000000000402100408010308000080000000040000000000E9
:200260000000000000000000000000000000000018000400040400043140000000000000E5
:20028000000000000000000000000000000000000000000000000000000000000633600CB9
:2002A0000100020005006A00014664A9610E0230000010010040001320FFC0004000200034
:2002C000602A02542F00800008806556000000FF1F00E000000080000000000000000000CE
:2002E0000000000000000000000000000000000000000000040400003300000000000000C3
:200300000000000000000000000000000000000000000000000000000000000000000000DD
:2003200000080004000000020000000100000000000000000000000C0000000000000000A2
:20034000000000000002000000000000000400080001000200000000000000450000000047
:20036000000000000000000000000000000000000000000000040000100000000000000069
:2003800000000000000000000000000000000000000000000000000000000000000010004D
:2003A00002000100000000000000000001000A00000010000000000001000200000000001C
:2003C0000100060000000000000000000400030010000800000008000000100000000000DF
:2003E0000000000000000000000000000000000000000000040000000100000000000000F8
:200400000000000000000000000000000000000000000000000000000000000031CFC230EA
:200420000000000FF7000000009E0860000000000073000000000700C03034C95400A00055
:200440000000000077FD0002A19452600000F0000F0000FF0000000000000040600400009D
:200460000000000000FFFFFF00A00004180000000F00040004040404011000004000C0008F
:200480004040C000C000C000C000C00000000000000000000000000000000000A3005C001D
:2004A000000001000000000C0E01F0000002000000000000FE080104000000029600680023
:2004C000000000007F000001C5003A00FF04000800010002000000000000014560010000E8
:2004E00000D052011EFFFFFF00AF0F04180000002700000004040404000000004000C000AD
:200500004040C000C000C000C000C000000000000000000000000000000000000000020297
:20052000000000010004000000000004000800000000080000000002000004000000000894
:2005400000000100000200000001000008040208010104020000000000000045130200001F
:200560000000000000FFFFFF00A00001180000000F000000040404040111000040008000D4
:200580004040800040008000402080000000000000000000000000000000000000CC0001EE
:2005A0000000000017AB00040C00011000CC000200670F0000000000300000000C000200D6
:2005C0000B0004000800010F30084001400010E020180F0F280800000000040013020000AC
:2005E000002C043E37FFFFFF00AF07011800000000000000040404001101000040008000AC
:20060000404080004000800040208000000000000000000000000000000000000201000235
:2006200018100620344008002C0810002440000001001E070101000600044001064000008F
:20064000240418001A1024203F080000000760401F38000820A0000200000050000000008D
:2006600000000000000000000000000000000000000000000404000043000000000000002F
:20068000000000000000000000000000000000000000000000000000000000000001000E4B
:2006A0000007001000F00000000000F0000000F0000000000006008100F0000000010008D3
:2006C00000020085000700200003004400F000000000000F000000800000000100000000A5
:2006E0000000000000000000000000000000000000000000000400003000000000000000C6
:200700000000000000000000000000000000000000000000000000000000000000000B08C6
:200720000100060001000A000000300000008B0000000B0200001000010024010000100099
:200740000A00010000004000000010047008800407020801000022000000400000000000CA
:200760000000000000000000000000000000000000000800040400043390000000000000A2
:20078000000000000000000000000000000000000000000000000000000000000140001701
:2007A000220105003A0704000500780801000004030200E0100007FF083707C803E800004E
:2007C000C0980760015700A8FF010000000080FF00007F000820000000004004560000009A
:2007E00001B0D0000AFF7FFF42A070000C000000000000000404040003030000000940092F
:20080000300900000000000000000000000000000000000000000000000000000100060098
:2008200000010000000400000000000402000102000000020108020001000A00100000087A
:200840000000000000000000000200000301100808020404000002000000045425060000E3
:200860000000000000FFFFFF00A00001180000000F0000000404040442220000400080007F
:200880004040800040008000402080000000000000000000000000000000000000000000B8
:2008A00000000000003001000000020000170000000C0401000B0004000C00020030004050
:2008C00000080801000000000000000F011004200240080F000A0000000000013406000025
:2008E000004C203E3BFFFFFF00AF07011800000000000800040404042292000040008000BB
:20090000404080004000800040208000000000000000000000000000000000000000000037
:200920000000000F00FD0002C09434603173C200F79E00600000070000CF003077000000E9
:20094000A13052C95400A0000000080000FFF0000F000000000000000000000100000000B0
:20096000000000000000000000000000000000000F00040004040004022000000000000036
:20098000000000000000000000000000000000000000000000000000000000000000001047
:2009A00096CC680200000000006700000E00F000FEAB01040000000F00CC0001A3085C0174
:2009C000C5003A00000001007F00000000E00018000FFF0000020000000040000000000050
:2009E000000000000000000000000000000000000000080004040004209000000000000033
:200A00000000000000000000000000000000000000000000000000000000000000140000C2
:200A200000400010000000000000000000000003000900F0000C007100DC0002001000AC53
:200A4000000000000000000000000000000000E00000001F00000008000000004602000047
:200A600000BC00E023FFFFFF0000F0440C00000001000400000404044044000000000000E5
:200A80000000C0000000400200000000000000000000000000000000000000000000000054
:200AA000000000050000000A00000100000000030000000002000000000000000000000021
:200AC0000000000000000000000000000008010202040001000000000000100000000000F4
:200AE0000000000000000000000000000000000000000000040400040200000000000000E8
:200B0000000000000000000000000000000000000000000000000000000000000001000ACA
:200B2000000000000001000600000000000000000000000000020001000100020010000098
:200B4000000000000000000000000100000400100103000800000020000000040000000050
:200B60000000000000000000000000000000000000000800040400042090000000000000B1
:200B800000000000000000000000000000000000000000000000000000000000290010001C
:200BA00000000000000000008000000000000000000000000300140073000C00000000001F
:200BC00000005E0073000400000000001000800060000F002000800000001500020000008A
:200BE0000005000111FF07FF4020F0050800000000000800040004040494000040A8402088
:200C00000000000000000000000000000000000000000000000000000000000000000000D4
:200C20000000000000000000000000000000000000000000000000000000000000000F00A5
:200C4000000000000000000000000004000008000000000000000000000000000000000088
:200C600000000000000000000000000074000000380000000F2F6F0000000000000000001B
:200C8000000000000000000000000000000000006F000F000F0000000000000000220000A5
:200CA000000028000000000004000000000000000000000000000000000000000000000008
:200CC000000000000000000000000000000000000000000000000000000000000000000014
:200CE0000000000000000000000000000000000000000000000000000000000000000000F4
:200D000000008000000000000000000000000000000000000000000000000000000008004B
:200D20000020A00004020000000000000000000000000000000000000000000000000000ED
:200D4000000000000000000000000000000000000000000000000000000000000F00040080
:200D6000000000000000000000000000000000000000010000000000000000000000010071
:200D8000000001000000000000000000000000000000000000000000000000000000000052
:200DA000000000000000000000000000000000000000000000000000000000000000000033
:200DC0000000000000000000000200000100000000000020000000000000000000000400EC
:200DE0000000000000000000000000000000000000000000000000000000000000000000F3
:200E00000000000000000100080000000000000000000000000000000000000002000000C7
:200E20000002000000000000000000000000000000000000000000000000000000000000B0
:200E4000000000000000000000000000000000000000000000000000000000000000000092
:200E6000000000000000000000000000000000002000000000000020000000000000000032
:200E8000000000000000000000000000000000000000000000000000000000000000000052
:200EA000000000002000000000000000000000000000000000000000000000000000000012
:200EC000000000000000000000000000000000000000000000000000000000000C00000006
:200EE0000000000000000000000000000000000003000000000000000000000000000000EF
:200F00000400000000000000000000000000000000000000000000000000000000000000CD
:200F20000000004100000000400002080200000000000024000000100028820000015400F1
:200F400000000000000001000000000000005000000000001002000000000000000000002E
:200F6000002000000000000000000004000000000004000022000C00000000404800000093
:200F80000000800000000000000000000000000000000000000000000000000002000004CB
:200FA000001800402000800000041000100000004010040400000161480000040200000409
:200FC000000040100040000000000000000000000000000000000000000000009000C00031
:200FE00061000000000001000C0005002000000000001500150000000000000002004800EA
:201000000000E30000000000000000000000000000000000000000000000000002000000EB
:20102000800000040000460000000020800000000000100000084600020000160012440872
:201040000021811000000202000042200220080400009600840000200000102000100000D0
:2010600000010008040001104000001400000000000802100000980100000100000800043E
:2010800000000040000000000000000002000000000000000000000000000000000200000C
:2010A0000008010004001000840000200000000000004048000000010400001004001E00B0
:2010C00000008030000000001000010000000000000000000000000000000000C8002B005C
:2010E000280000000000D900F7002E00C4002C0000008F00860000000000000001000800BC
:20110000080000000000010000000000000000000000000000000000000000004000000086
:201120000000000000100000000000000000000000000000140000000000000000402440E7
:20114000000000210002010040000000020000000000106528000000000400050000000083
:2011600040010020000000000010000900000000000001000000000020028400000000004E
:20118000000002000000000000000000020000000000000020000004000000000000020025
:2011A0000000000002002400000000002800000004040040000000400A000004001000003B
:2011C0000001101080000000000000004410400010000100000000000000000001000200C6
:2011E0000000000000008000F100C600A00020000000F00080000000000000000000800008
:2012000000000000800000000000000000000000000000000000000000000000000000202E
:2012200000000002000840000000640000408A0A00020848020000002808240004010A086D
:20124000000000400000004000000820000880200000860806400000280040800000000082
:201260000000000000000000000000000000000000000000040000004000012400000010F5
:2012800000000100000000000000000000000000000000000000000000000000000000004D
:2012A00000000204000000000000000040000000000000580000002100000110000000005E
:2012C0000400001000000000000000000008000000000000000000000000000084007C00F2
:2012E000FF00000000004100DE007B00000000000000F20082000000000000000000800061
:201300000000040000000000000001000000000000000000000000000000000002002002A4
:2013200010008001000000080000040140800D004000050000004000301004044000101213
:201340000000000100001000000080060010810040000C00000000600280040100400000F2
:2013600000004000080100000800002014405000000000000481200040000A100400000055
:201380008000000000000000000000000000000000000000000000000000000000000000CD
:2013A0000000000000000000000000000000022008144400008000400A0000060150A802E0
:2013C00010011000002000000000000120800808000002000000000000000000DD00C2007A
:2013E000DB000000000034005D00DC00880024000000FF0084000000000000000000000076
:2014000000000000E0000000000000000000000000000000000000000000000000084000A4
:201420000000000000006100000000000000200000000000001841000000000000000000D2
:2014400040002021000000000000000400000000000000100000000008000060000000008F
:2014600000000000000000000000000000000000000000000000000000000000000000006C
:2014800000000000000000000000000000000000000000000000000000000000000000004C
:2014A0000000000000000000000000000000200000000010000040000010010000000000AB
:2014C000000000001000004001000000000001200800800000000000000000000C000D00F9
:2014E000040000000000200020007000000000000000000000000000000000000000000038
:2015000000000000040000000000080000000000000000000000000000000000000040007F
:20152000200000010800000100000011000020000011210010200201020900100181040842
:2015400020402801022001000010000200012000000008011A004000220160008109041028
:20156000008800100000000000008005000000000000450080100802000000000000040467
:2015800000000000000000000000000001000000000000000000000000000000000000004A
:2015A00000000000000000120010800000000000000400000000004020000A040010000007
:2015C00000211000000400000000000040000040008002000000000000000000C800A50067
:2015E000F400000000003D00C500BF007E00000000000F00060000000000000000000000A3
:20160000800000002000100010000800000000000000000000000000000000008200000080
:201620000006060000004800000011800000000AA8400000008048080040012000018125FB
:2016400020000000000004200040002128000000200680000A00000000000280000000008B
:201660000000000000000000000000000000000000000000000100000000000042100040D7
:20168000000000001800000000000000A50000000000000000000000000000004200000843
:2016A0000000004000C01008000001000000300200020015A007420200000020400000007D
:2016C00090001060000000100000040000200000001100000000000000000000F900BA0012
:2016E000FC00000000005000F600930000000000000001000D000000000000000000000007
:2017000000004000000004000000080000000000000000000000000000000000000000007D
:2017200000521000000000000000154000000000200006020000000000000404820001013E
:2017400008840040206412010024008200308200000011440080240D800200140000000032
:20176000000000000000000000000000000000000000000000000000000000000000000069
:201780000000000000000000000000000000000000000000000000000000000000008002C7
:2017A00000000100000104800000000000801110080200480022200240040A00001001010C
:2017C0000120800000800000000001010300A002002100000000000000000000F000F00040
:2017E000F00000000000FF00FD00FF0000000000000000000000000000000000A00000005E
:201800000000000030008000A0000000000000000000000000000000000000002000000058
:20182000500A000000104182000000A5800004002003026000200216000010400040A00065
:2018400000500000088000800008012A00006000200600400000001000000881004440908A
:2018600000410000400001000000000000004000000001080000080000000202000004008D
:20188000000000000000000000000000000000000000000000000000000000000000210423
:2018A0000000080018100100000000005018A00200010095A08700421000281000000000A6
:2018C0000000906090000100202002040800000E000001000000000000000000F200F20046
:2018E000FA0000000000FD00FC00D4009F0008000000020002000000000000000400000072
:20190000040002000000000000000B000000000000000000000000000000000064008000D2
:20192000006480008000A008002104220202080810002A024400220100001100204840885C
:201940000010080082000200002086000008800010440002000000010000086200000000FC
:2019600002000080000000000402020000000000000000104000000000000000008000010C
:20198000000000000000000000000000000000000000000000000000000000000000001037
:2019A0000040000400000010000003000000000000000000000000000000000000000000D0
:2019C00000000000000000000000000000000000000000000000000000000000FF00FF0009
:2019E000FF0000000000F800FA00F1001000300000000800080000000000000010000000A5
:201A00009000000000000000000000000000000000000000000000000000000080000010A6
:201A20000500020400000880000014810000D01840002840000122105500100B8005040AB8
:201A40000014014500005110000104268008001010060040000A0090100000850000800102
:201A60000000000000000000000000000000000000000000000002000900600000000000FB
:201A80000020804010108000000000009008000000000000000000000000000004044000E6
:201AA0004002004010800000001440000000000000000000000000000000000000000000C0
:201AC00000000000000000000000000000000000000000000000000000000000F500FA0017
:201AE000FE0000000000FF00FE00FF00000000000000F100B000000000000000000000004B
:201B000000004900000000000000000000000000000000000000000000000000000000007C
:201B200000000000000000000000000000000000000000000000000000000000000008009D
:201B400080000008000080000000000200000810000000088000000000008000000000005B
:201B6000000000000000000000000000000000000000000000000000000000000000000065
:201B8000000000000000000000000000000000000000000000000000000000000000001233
:201BA000000000000000000000000000000000000000000000000000000000000000000025
:201BC0000000000000080000000000000000000000000000000000000000000000000000FD
:201BE00000000000E0003000D00030000000000000000000000000000000000000000000D5
:201C0000000000000000800000000000000000000000000000000000000000000000000044
:201C200000000000000000000000000000000000000000000000000000000000000008009C
:201C40000000000000000000000000000001008000000800000000000000000000000000FB
:201C600000000000000000000000000000000000000000000000000000000000000800025A
:201C80000000000000000000000000000000000000000000000000000000000000000080C4
:201CA000000000000000000100000000000000000000000000010000000000000000000022
:201CC0000000000000004000000000000000000000000000000000000000000000000000C4
:201CE0000000000040000000D0000000000000000000400040000000000000000000000054
:201D0000000020000000000000008000000000000000000000000000000000000000000023
:201D200000000000000000000400000000000000000000000000000000000000000000009F
:201D40000000000000000000000000000000400004000000800000000000000000000000BF
:201D60000000000000000000400040000000000000000000000000000000000000000000E3
:201D8000000000000000000000000000000000000000000000000000000000000000000043
:201DA000000000000000000000000000000000000000000000010000000000000000000022
:201DC0000000000000000000000000000000000000000000000000000000000000002000E3
:201DE000000000000000000090001000000000000000000000000000000000000000000043
:201E00000000000000000000000000000000000000000000000000000000000000000000C2
:201E20000000000000000000000000000000000000000000000000000000000000000000A2
:201E4000000000000000000000000000000000000000000200000000000000000000000080
:201E6000000000000000000000000000000000000000000000000000000000000000000062
:201E80000000000000000000000000000000000000000000000000000000000000000080C2
:201EA00000000002000000000001000000000000000000000000000000010000000000001E
:201EC000000000800000000000000000000000000000000000000000000000000000000082
:201EE000000000000000000080000000000000000000000000000000000000000000000062
:201F0000000060000000000000000000000000000000000000000000000000000000000061
:201F20000000000000000000000000000000000000000000000000000000000000000000A1
:201F4000000000000000000000000000000000000000000000000000000000000000000081
:201F60000000000000000000000000008000000000000000000000000000000000000000E1
:201F8000000000000000000000000000000000000000000000000000000000000000000041
:201FA0000000000000000000000000000000000000000000000000000001000080000000A0
:201FC000000000800000000000000000000000000000000000000000000000000000000081
:201FE0000000100000000000000000000000000020000000000000000000000000000000B1
:202000000000000000000000000000000000000000000000000000000000000000000000C0
:202020000000000000000000000000000000000000000000000000000000000000000000A0
:202040000000000000000000000000000001008000004000000000000000000000000000BF
:20206000000000000000000000000000000000000000000000000000000000000000000060
:20208000000000000000000000000000000000000000000000000000000000000000000040
:2020A000000040000000000080000000000000000000000000000000000000000000000060
:2020C000000000000000000000000000000000000000000000000000000000000000000000
:2020E000000000000000000070000000000000000000000000000000000000000000000070
:20210000000040000000000000000000000000000000000000000000000000001501100059
:202120000000000000001401150100001B0110000000000018011A000300190100000000F8
:2021400000000000C000000010002F101000100000000000000003000300000000303000EA
:2021600030008F00000C0C0000000000100000000000000001020000000000000010000065
:202180000000000000000000400000000000000000000000000000000000000000000000FF
:00000001FF
