:2000000000000000000002000080000000000000002700000200F000C80CA32ACF5430A0B1
:2000200073770000000000000000000000F700009E00600794A1605200000000FD000200F4
:2000400000000F08003100C230C0C93400000000FF0F00F00000000000001000000000009B
:20006000000000000000000000000000000000000000000004040000100000000000000068
:20008000000000000000000000000000000000000000000000000000000000000096006862
:2000A0006700000000000000CC00010000FE0001CC0E02F00800010100A3005CAB00040089
:2000C000007F000000C5103A00000F0018000FFFE000000020000000000000040000000059
:2000E0000000000000000000000000000000000000000000040400000100000000000000F7
:200100000000000000000000000000000000000000000000000000000000000000000000DF
:200120000000000000000000000000000000010000000000000000000000000000000000BE
:2001400000000000000000000000000000000000010000000000000000000000000000009E
:2001600000000000000000000000000000000000000000000400000000000000000000007B
:2001800000000000000000000000000000000000000000000000000000000000000000025D
:2001A00004000004020000000000080108000000000000000000020800020400010400000F
:2001C000000100000000010800000400080801020204040100000000000051155203000038
:2001E0000000000000FFFFFF00A00001180000000F00000004040404001100004000800059
:200200004040800040008000402080000000000000000000000000000000000000300040CE
:20022000003000000000010000000000000B00040000000F000C0001000C08020008020141
:20024000001704000000000000000000020F08100120044000280000000000045203000074
:200260000042C03E3BFFFFFF00AF0701180000000F00040004040404111100004000800032
:200280004040800040008000402080000000000000000000000000000000000000001000AE
:2002A00000A100526700000000C00034CC3101C2AB000407CC0002080000000000000F0095
:2002C0000077000000F70000085401A018000FF0E00F00002000000000000000600300002A
:2002E0000000000000FFFFFF00A00004180000000000000004040400220000004000C00017
:200300004040C000C000C000C000C00000000000000000000000000000000000000000009D
:20032000009E006000000000003000C90094036000FD00020000000F0000000000CF0530BD
:200340000000000000730A0000000000020004FF01000800000000000000000460020000AC
:2003600000D021051EFFFFFF00AF0F04180000002700000004040404000000004000C0005B
:200380004040C000C000C000C000C00000000000000000000000000000000000000010000D
:2003A00000008B0800000B0000000B000100060201002400000010000000300401000A0116
:2003C000000010000A0001000000400007080802800170040000820000000400000000002E
:2003E00000000000000000000000000000000000200004000404000433300000000000006A
:2004000000000000000000000000000000000000000000000000000000000000054820026D
:20042000711F020001010E000040101400014000044221092540000B800300208000000171
:20044000044F0100F190080B25030000401F0F0080E0304020A808000000005463000000C7
:20046000010B0D0005FF7FFF42A070000C00000000000000040404003303000000094009EF
:2004800030090000000000000000000000000000000000000000000000000000082C0710D8
:2004A000011A0024FF2400183A06040003010000103F070001240000C00007400301001ED6
:2004C000220205000534780801180006801F006000007F0002020000000040000000000059
:2004E0000000000000000000000000000000000000000000040400003300000000000000C1
:200500000000000000000000000000000000000000000000000000000000000002020101D5
:200520000000001000010002010006100001000A101000000100020001000A001000000048
:20054000000100062000400020004000030370100808040408000202000004040000000022
:2005600000000000000000000000000000000000000000000404000421000000000000004E
:200580000000000000000000000000000000000000000000000000000000000006008100D4
:2005A0000000F000F0100000F00000000001F0020101080A01020E010000000003104400EB
:2005C0000201850607001000070020000010F0040F030008000220200000040100000000EA
:2005E000000000000000000000000000000000000000080004040004139000000000000044
:20060000000000000000000000000000000000000000000000000000000000000040001882
:20062000000000200E4030080050000200000100463FA900000F00008000564040401314C7
:200640002A505401FF04000833800C00003F00C00000FF00000A00000000000453000000A2
:200660000005020005FFFFFF42A070000810000000000000040404003303000000484048F5
:200680008048804800000000000000000000000000000000000000000000000000000004C6
:2006A00000000002000000000000000000000000000800000000000100000000000000002F
:2006C00000000000000000000000000000040008000100020000000000000000000000000B
:2006E0000000000000000000000000000000000000000000000400043000000000000000C2
:200700000000000000000000000000000000000000000000000000000000000000000000D9
:200720000000000000000000000000000000000000000000010006000000000001000200AF
:20074000000000000000080000001000030008001000040000000000000000000000000062
:20076000000000000000000000000000000000000000000004000000030000000000000072
:20078000000000000000000000000000000000000000000000000000000000000000000059
:2007A000000000000000000000000000000000000000000000000000000000000000000039
:2007C000000000000000000000000000000000000000000000000000000000000000000019
:2007E00000000000000000000000000000000000000008000000000400900000000000005D
:200800000000000000000000000000000000000000000000000000000000000010000000C8
:20082000000000000000000002000100000000000100020001000A00010006000000100090
:200840000000000000000000000000001000080004000300000080000000010000000000F8
:200860000000000000000000000000000000000000000800040000040290000000000000D6
:20088000000000000000000000000000000000000000000000000000000000000896016851
:2008A00000FE000117C5003A00000001000E00F00B000400007F00000C00020030A3405C19
:2008C000300000000C00010000000F0010FF200040000F000A0000000000010154060000E8
:2008E0000000000000FFFFFF00A00001180000000F0004000404040402220000400080003B
:20090000404080004000800040208000000000000000000000000000000000000400000033
:20092000000804000000080400000101000000000000000002000000000000020000020097
:200940000000000000000808000000000402020801010804000000000000450454060000C6
:20096000004C230E1FFFFFFF00AF0701180000000F000000040404042122000040008000ED
:200980004040800040008000402080000000000000000000000000000000000000000000B7
:2009A000004000200006006000010064002000C0002F0080000800650001000200600002AB
:2009C0000005006A006100020000001000000000001F00E0000000800000000000000000B6
:2009E0000000000000000000000000000000000000000000000400003000000000000000C3
:200A0000000000000000000000000000000000000000000000000000000000004D0092FFF8
:200A2000040200E01A016000A95754A802010000CCE8130000980460004002170007B5007E
:200A4000A5374AC8FF00000800000104FF000000000000FF2000000000000140000000003D
:200A600000000000000000000000000000000000000000000404000000000000000000006E
:200A8000000000000000000000000000000000000000000000000000000000000000000056
:200AA000000000000000000000000000000000000000000000000000000000000000000036
:200AC000000000000000000000000000000000000000000000000000000000000000000016
:200AE00000000000000000000000000000000000000008000000000400900000000000005A
:200B00000000000000000000000000000000000000000000000000000000000000000000D5
:200B20000000000000000000000002000000000000000000040000000000000000000000AF
:200B400000000000000000000000010004000200010000000000000000000100000000008C
:200B600000000000000000000000000000000000000000000400000002000000000000006F
:200B8000000000000000000000000000000000000000000000000000000000000000000055
:200BA000000000000000000000000000000000000000000000000000000000000000000035
:200BC0000000000000040000000F00000000000000000000000000000008000000000000FA
:200BE000000000000000000000000000000000006F0F002F00000000000000000000000048
:200C00000000000000000000000000000000000000000F6F00000000000000000800000846
:200C2000800020000000000000000000000000000000000000000000000000000000000014
:200C4000000000000000000000000000000000000000000000000000000000000000000094
:200C6000000000000000000000000000000000000000000000000000000000000000000074
:200C8000000000000000000000000000000000000000000000000000000000004000000014
:200CA000040020000000000800000000000000000000000000000000000000000000000008
:200CC000000000000000000000000000000000000000000000000000000000000F00000005
:200CE0000000000000000000000000000000000000000000000000000000000000000400F0
:200D00000000000000000000000000000000000000000000000000000000000000000000D3
:200D2000000000000020000000000000000000000000000000000000002000000000000073
:200D400000000000000000000000000001000000000000000000000000000000000004008E
:200D600000000000000000000000000000000000000000000000000000000000040000006F
:200D8000000000000000010000000000000000000000000000000000000000000200000050
:200DA00000080000000000000000000000000000000000000000000000000000000000002B
:200DC000000000000000000000000000000000000000000000000000000000000000000013
:200DE0000000000000000000000000000000000000000008002000000000000000000000CB
:200E00000000000000000000000000000000000000000000000000000000000000000000D2
:200E20000008000000000008000000000000000000000000000000000000000000000000A2
:200E4000000000000000000000000000000000000000000000000000000000000C00000086
:200E600000000000000000000000000000000000030000000000000000000000040000006B
:200E8000000000000000000000000000000000000000000000000000000000000000000052
:200EA0000040000000000000000004000000000000000100000000000000002500000000C8
:200EC000000000000000000000000000000000000000000000000000000000000000000012
:200EE00000000000000000000000000000000000000000000000008200000000004001002F
:200F0000000000000000000000000000000000000000000000000000000000000000008150
:200F20000000000000000006000000000000040000000000000000000000000000000000A7
:200F40000000002000000000000000000000000000000100000000000000000080004000B0
:200F6000800000000000000000000000000000000000090009000000000000000000890056
:200F800000000200000000004000000000000000000000000000000000000000000000000F
:200FA000004100000000000000001402000000000001000000000000024014420000000041
:200FC000000000000000000000000000000000000000000000000000000000000000000011
:200FE0000000000000000000000000000000000000000000000001000000000200000100ED
:2010000040000000000000000000000000000000000000000000000000000000000000048C
:201020000000010200000001000000000001000000000080000100004000010000000000E9
:20104000010000060000000000000200000000010400000000000000000000009000E00012
:20106000100000000000000000000000000000000000810081000000000000000000080056
:20108000000006000000800000000000000000000000000000000000000000000240140074
:2010A0000000000001203200000000000080280100000000000004020000000000400000EE
:2010C0000400A006890004910005100200401B008020080204661001004008200820000021
:2010E0000000000000000000000000000000000000000000000000000000000000000000F0
:201100000000000000000000000000000000000000000000000000000000000000000000CF
:20112000000000000000000000000000006320000080000000600C000000010401600A814F
:201140000000A0200000000000000000001080001200000000000000000000000F000F000F
:201160000F0000000000FF00FF007F000000000000000000000000000000000000000000E3
:201180000000000000000000000000000000000000000000000000000000000000009108B6
:2011A0000010800800000400000802000800400012105000048600000002068808008060CD
:2011C0000000004000000008000000808000000002100000480010004218100000020000F1
:2011E00000020000C84020000C000100000054000000000010064000018000280000240041
:201200000000020000000000000000000000000000000000000000000000000001080000C3
:2012200000000000000000000000000048015200000000C00251800040000040000C0001F3
:20124000440000860000000000000000000000000000000000000000000000005F00A200C3
:20126000FA00000000008400A800FE0081003C000000FF0086000000000000000000000008
:20128000000000000000000000000000000000000000000000000000000000001A800000B4
:2012A000081002801000A00200060128000068801080002110A080010252010408080081FF
:2012C000080000615020040500000203800012040000004100690000020108000000004894
:2012E000000000000404000000000820800000800000000000000000029004000000000028
:201300000001000900000000000000000000000000000000000000000000000000090000BA
:20132000000000008021000000000000006024000801800040004E008024018400600A0AD4
:2013400080000020000200110000000000000010000000080000000000000000FF00FF00C4
:20136000FF00000000008F009F004F000A0004000000F000B0000000000000000000000043
:2013800000000000200000004000000000000000000000000000000000000000008000026B
:2013A0000010004000020000000800848800000002004000020800214010101500000020C5
:2013C000082C0008001000C00000801801280008030000280200C08D00000084001000002A
:2013E000000010040022000000200020C8101000000000000002A0040000000000000008E1
:201400000000000000000000000000000002000000000000000000000000000000000000CA
:201420000000000000000020000000000001E20080000043024100004088000000000010CB
:201440004C0200000200020000000000000000080400000000000000000000005000780066
:201460009A00000000007500E7005A004400240000000F000400000000000000000085001C
:201480000000000000000400000004000000000000000000000000000000000004410800F7
:2014A000000201008800A8480004191080001220014044A000410000000009090000012039
:2014C000001100110905000000000020006009000000000900011440002280080410000037
:2014E0000000000000000000000000000000000000000000000000000000000000000000EC
:2015000000000000000000000000000000000000000080000000000000000000000100004A
:20152000000000004000051200000000002034080809002000005A00802004A400600A04B7
:20154000800000000000000400000008080000000000000000000000000000009F00EF0069
:20156000DF00000000004F00CF00FF0000000000000000000000000000000000000000006F
:201580000000000000000000000000000000000000000000000000000000000088000004BF
:2015A000001000000020004240000000080000811005000000606200040100884000440404
:2015C000002080500008208000000620002080000000194180040100000400020000201494
:2015E0000000001402000000020500000000000000001501118008004020060000001400A5
:201600008000000000000000000000000000008000000000000000000000000002000000C8
:20162000010000040000000080000000000000000000000000100005000002400000183086
:201640000002000040100000042008000000000000000000000000000000000047008B003A
:201660003B0000000000C700FC00CB00660018000000FF008600000000000000000010008E
:20168000000001000000080004000000000000000000000000000000000000000000040039
:2016A0000A6002008000A0000001041000011890404110A40200000000001400000900008C
:2016C000000015094020040200000050A000480000001401024810000000100000080000C7
:2016E000000000002000010000000000000040400000000000000000081000000000000031
:201700000000080400000000000000000000000000000000000000000000000000000000BD
:201720000010000000010000010010000020000800020004004000000000000000600A02AD
:2017400000000000000000000000000000000000000000000000000000000000F2007D001A
:20176000FF0000000000CF00EE002F000200080000006000600000000000000000000000B4
:20178000000008000000000000000000000000000000000000000000000000000000000041
:2017A0000480000000020000002020000000000000000211000000104400202800000000B4
:2017C0000000001000000000000000280000000000900841000000000000020000000000F6
:2017E0000000000000000000000000000000000000000000000000000000000000000000E9
:201800000000000000000000000000000000000000000000000000000000000000000000C8
:20182000000000000000000000000000000000000400000000000005040002400000000059
:2018400000201000000000000000000000000000000000000000000000000000A000680050
:20186000D000000000006000F00080000000000000000000000000000000000000000000C8
:20188000000000000000000000000000000000000000000000000000000000000000000048
:2018A00000000000004002000000000400000000000202200000000000600006001009023D
:2018C00000000000000000000000000028000000000002020A0000000000000000000000D2
:2018E0000000000000000000000000000000000000000000000000000000000000000000E8
:20190000000000000800002000000000250002000000000000000000000000000000000078
:201920000000000000000000000000000000000000000000000000000000000000000000A7
:20194000000000000000000000000000000000000000000000000000000000000000400047
:20196000D0000000000000000600030000000000000000000000000000000000000000008E
:20198000000000000000000000000000000000000000000000000000000000000000000047
:2019A00004008040000000000020200000000000000002050000000000000010000000000C
:2019C000000000050000000004008010000000000000100500000000040002000000000053
:2019E0000000000000000000000000000000000000000000000000000000000000000000E7
:201A00000000000000000000000000000000000000000000000000000000000000000000C6
:201A20000000000000000000000000000000000000000000000000000000000000000000A6
:201A40000000000000000000000000000000000000000000000000000000000030006000F6
:201A6000B000000000007000E000C0000000000000000000000000000000000000000000A6
:201A8000000000000000000000000000000000000000000000000000000000000000000046
:201AA0000000000000000000000000000000000000000000000000000000000000000040E6
:201AC000000008080080000000000002000008100080000800000040000000000000000094
:201AE0000000000000000000000000000000000000000000000000000000000000000000E6
:201B00000000000000000000000000000000000000000000000000000000000000000012B3
:201B20000000000000000000000000000000000000000000000000000000000000000000A5
:201B40000000000000000000080021200040000000000000000000000000000000000000FC
:201B600000000000E0003000F0001000000000000000000000000000000000000000000055
:201B8000000000000000000000001000000000000000000000000000000000000000000035
:201BA000000000000000000000000000000000000000000000000000000000000000010024
:201BC0000000000000000000000000000000002008000000000000000000000000000000DD
:201BE000000000000000000000000000000000000000000000000000000000002040000085
:201C00000000000000000000000000000000000000000000000000000000000000000000C4
:201C2000000000000000000000000000000000000000000020000000000000000000000084
:201C4000000020000000000000000000000000000000000000000000000000000000000064
:201C6000000000004000000090000000000000000000400040000000000000000000000014
:201C8000000000000000000000000000000000000000000000000000000000000000000044
:201CA0000000000000000000000080000000000000000000000000000000000000000000A4
:201CC0000000000000000000000000000000000000004800000000000000000000000000BC
:201CE0000000000000000000000000000000000000000000000000040000000000000000E0
:201D00000000000000000000000000000000000000000000000000000000000000000804B7
:201D2000000000002000000000000000000000000000000000000000000000000000000083
:201D4000000020000000000000000000000000000000000000000000000000000000200043
:201D60000000000000000000A0000000000000000000400000000000000000000000A000E3
:201D8000000000000000000000000000000000000000000000000000000000000000000043
:201DA000000000000000000000000000000000000000000000000000000000000000000023
:201DC000000000000000000000000000008000000000004000000000000000000000000043
:201DE0000000000000000000000000000000000000000000000000000000000000000000E3
:201E00000000000000000000000000000000000000000000000000000000000000000000C2
:201E20000000000000000000008000400000000000000000000000000000000000000000E2
:201E4000000020000000000000000000000000000000000000000000000000000000000062
:201E6000000000000000000030000000000000000000000000000000000000000000000032
:201E8000000000000000000000000000000000000000000000000000000000000000000042
:201EA000000000000000000000000000000000000000000000000000000000000000000022
:201EC0000000200000000000000000000000000000000000000000000000000000000000E2
:201EE0000000100000000000000000000000000000000000000000000000000000000000D2
:201F00000000000000000000000000000000000000000000000000000000000000000000C1
:201F20000000000000000000000000000000000000000000000000000000000000000000A1
:201F4000000000000000000000000000000020000000000000000000000000000000000061
:201F6000000000000000000000000000000000000000000000000000000000000000000061
:201F8000000000000000000000000000000000000000000000000000000000000000000041
:201FA000000000000000000000000000000000000000000000000000000000000000000021
:201FC000000000000000000000000000000000000000000000000000000000000000000001
:201FE0000000000000000000100000000000000000000000000000000000000000000000D1
:20200000000000000000000000000000000000000000000000000000000000000F011000A0
:2020200000000000000006010D0100000F01100000000000030007000E000A010000000048
:2020400000000000C00000000F0000000000000000000300030000000030300030008F008C
:20206000000C0C0000000000020100000000000000100000000000000000000040000000F5
:00000001FF
